:020000040800F2
:10000000000002200D2E0008890900088B09000855
:100010008D0900088F090008910900080000000000
:10002000000000000000000000000000E1210008C6
:10003000930900080000000081220008E522000862
:100040005D2E00085D2E00085D2E00085D2E000864
:100050005D2E00085D2E00085D2E00085D2E000854
:100060005D2E00085D2E00085D2E00085D2E000844
:10007000950900085D2E00085D2E00085D2E000821
:100080005D2E00085D2E00085D2E00085D2E000824
:10009000A50900085D2E00085D2E00085D2E0008F1
:1000A0005D2E0008B50900085D2E00085D2E0008D1
:1000B0005D2E00085D2E00085D2E00085D2E0008F4
:1000C0005D2E00085D2E00085D2E00085D2E0008E4
:1000D0005D2E00085D2E00085D2E00085D2E0008D4
:1000E0005D2E00085D2E00085D2E00085D2E0008C4
:1000F0005D2E00085D2E00085D2E00085D2E0008B4
:100100005D2E00085D2E00085D2E00085D2E0008A3
:100110005D2E00085D2E00085D2E00085D2E000893
:100120005D2E00085D2E00085D2E00085D2E000883
:100130005D2E00085D2E00085D2E00085D2E000873
:10014000C50900085D2E00085D2E00085D2E000820
:100150005D2E00085D2E00085D2E00085D2E000853
:100160005D2E00085D2E00085D2E00085D2E000843
:100170005D2E00085D2E00085D2E000800000000C6
:080180005D2E00085D2E000851
:1001900010B5054C237833B9044B13B10448AFF3C1
:1001A00000800123237010BD3C04002000000000EB
:1001B0002C30000808B5034B1BB103490348AFF3CB
:1001C000008008BD00000000400400202C30000822
:1001D00053B94AB9002908BF00281CBF4FF0FF31AE
:1001E0004FF0FF3000F074B9ADF1080C6DE904CEAA
:1001F00000F006F8DDF804E0DDE9022304B0704702
:100200002DE9F047089D04468E46002B4DD18A42C9
:10021000944669D9B2FA82F252B101FA02F3C2F1FC
:10022000200120FA01F10CFA02FC41EA030E94408D
:100230004FEA1C48210CBEFBF8F61FFA8CF708FBAE
:1002400016E341EA034306FB07F199420AD91CEB86
:10025000030306F1FF3080F01F81994240F21C81B8
:10026000023E63445B1AA4B2B3FBF8F008FB103300
:1002700044EA034400FB07F7A7420AD91CEB040435
:1002800000F1FF3380F00A81A74240F20781644405
:10029000023840EA0640E41B00261DB1D44000238A
:1002A000C5E900433146BDE8F0878B4209D9002DEE
:1002B00000F0EF800026C5E9000130463146BDE878
:1002C000F087B3FA83F6002E4AD18B4202D38242E2
:1002D00000F2F980841A61EB030301209E46002D91
:1002E000E0D0C5E9004EDDE702B9FFDEB2FA82F2E6
:1002F000002A40F09280A1EB0C014FEA1C471FFA44
:100300008CFE0126200CB1FBF7F307FB131140EA2A
:1003100001410EFB03F0884208D91CEB010103F1F7
:10032000FF3802D2884200F2CB804346091AA4B2B9
:10033000B1FBF7F007FB101144EA01440EFB00FE8D
:10034000A64508D91CEB040400F1FF3102D2A645F2
:1003500000F2BB800846A4EB0E0440EA03409CE791
:10036000C6F12007B34022FA07FC4CEA030C20FA3E
:1003700007F401FA06F31C43F9404FEA1C4900FA5E
:1003800006F3B1FBF9F8200C1FFA8CFE09FB1811DB
:1003900040EA014108FB0EF0884202FA06F20BD94E
:1003A0001CEB010108F1FF3A80F08880884240F29E
:1003B0008580A8F102086144091AA4B2B1FBF9F0E2
:1003C00009FB101144EA014100FB0EFE8E4508D9DD
:1003D0001CEB010100F1FF346CD28E456AD9023862
:1003E000614440EA0840A0FB0294A1EB0E01A14247
:1003F000C846A64656D353D05DB1B3EB080261EBB5
:100400000E0101FA07F722FA06F3F1401F43C5E98E
:10041000007100263146BDE8F087C2F12003D840C4
:100420000CFA02FC21FA03F3914001434FEA1C4706
:100430001FFA8CFEB3FBF7F007FB10360B0C43EAF8
:10044000064300FB0EF69E4204FA02F408D91CEBA8
:10045000030300F1FF382FD29E422DD902386344A6
:100460009B1B89B2B3FBF7F607FB163341EA034146
:1004700006FB0EF38B4208D91CEB010106F1FF3895
:1004800016D28B4214D9023E6144C91A46EA00468C
:1004900038E72E46284605E70646E3E61846F8E61E
:1004A0004B45A9D2B9EB020864EB0C0E0138A3E767
:1004B0004646EAE7204694E74046D1E7D0467BE748
:1004C000023B614432E7304609E76444023842E7C0
:1004D000704700BF08B50D480D4B03600323436010
:1004E00000238360C3604FF4102202614FF40012B6
:1004F0004261037643768376C3760377437700F0D1
:1005000015FB00B908BD00F075F9FBE75C0400209D
:100510000064004008B50D480D4B036003234360A1
:1005200000238360C3604FF4102202614FF4001275
:100530004261037643768376C3760377437700F090
:10054000F5FA00B908BD00F055F9FBE78404002076
:100550000068004010B58AB0002305930693079306
:100560000893099303683D4A934204D03C4A93425E
:1005700034D00AB010BD3B4A136801331360012B1D
:100580001FD000240194384B1A6B42F008021A6302
:100590001B6B03F008030193019B032305930222C5
:1005A000069208930923099305A9304800F0ACFE90
:1005B00022460521142000F0A3FC142000F0D8FCF2
:1005C000D7E700230093284B1A6C42F000721A649C
:1005D0001B6C03F000730093009BD2E7002302938F
:1005E000214B1A6C42F080621A641B6C03F080632A
:1005F0000293029B1B4A136801331360012B20D026
:1006000000240494184B1A6B42F002021A631B6B0D
:1006100003F002030493049B6023059302230693D3
:10062000032308930923099305A9114800F06CFEE0
:1006300022460521402000F063FC402000F098FC99
:1006400097E700230393084B1A6C42F000721A6478
:100650001B6C03F000730393039BD1E7006400401D
:10066000006800405804002000380240000C02409E
:100670000004024000B583B000220192094B196BBF
:1006800041F4001119631B6B03F400130193019BE8
:1006900005210C2000F034FC0C2000F069FC03B0B4
:1006A0005DF804FB0038024008B5012001F0F7FCBA
:1006B000094C01224FF48051204600F017FF002220
:1006C0004FF40061204600F011FF00224FF48061DA
:1006D000204600F00BFFE8E7001C0240034B0360DC
:1006E000034B0B6080231360704700BFB0060020EF
:1006F000B004002010B588B00DF1040C074C0FCCED
:10070000ACE80F0094E807008CE80700002101A87E
:1007100001F090FC024B186008B010BD4430000896
:10072000AC040020F0B58BB0002405940694079427
:10073000089409940194264B1A6B42F002021A6342
:100740001A6B02F002020192019A02941A6B42F0B3
:1007500008021A631A6B02F008020292029A0394CA
:100760001A6B42F004021A631A6B02F0040203923D
:10077000039A04941A6B42F080021A631B6B03F015
:1007800080030493049B134F01224FF4E051384639
:1007900000F0ACFE104E22464FF48041304600F08F
:1007A000A5FE4FF4E053059301250695079508949F
:1007B00005A9384600F0A8FD4FF48043059306953F
:1007C0000794089405A9304600F09EFD0BB0F0BDDB
:1007D00000380240001C0240000C024008B50268CC
:1007E000034B9A4200D008BD00F08EF9FBE700BF32
:1007F0000000014072B6FEE700B595B0302200213E
:1008000008A802F051FB0023039304930593069379
:1008100007930193204A116C41F080511164126CCE
:1008200002F080520192019A02931C4B1A6842F422
:1008300080421A601B6803F480430293029B0123E9
:1008400008934FF48033099302230E934FF48002F0
:100850000F9206221092A82211921293042313934E
:1008600008A800F049FE98B90F23039302230493CC
:10087000002305934FF4A05306934FF4805307933E
:10088000052103A801F086F820B915B05DF804FB36
:10089000FFF7B0FFFFF7AEFF0038024000700040E6
:1008A00008B500F017F9FFF7A7FFFFF73BFFFFF7C9
:1008B000E1FEFFF70FFEFFF72DFE00F095F8FFF7C2
:1008C00019FF01F0B2FBFEE700B583B000220092F1
:1008D0000D4B596C41F480415964596C01F48041CD
:1008E000009100990192196C41F0805119641B6CC0
:1008F00003F080530193019B0F216FF0010000F082
:10090000FFFA03B05DF804FB0038024010B588B070
:1009100001460022192000F0F3FA192000F028FB0C
:1009200000240194144B5A6C42F001025A645B6C2F
:1009300003F001030193019B02A903A801F000F950
:1009400001F0EEF843000D48A0FB03239B0C013B94
:100950000B480C4A026040F2E732C2604360046117
:10096000846001F077FA10B1012008B010BD04488E
:1009700001F006F9F9E700BF0038024083DE1B43AF
:100980000407002000000140FEE7FEE7FEE7FEE767
:10099000FEE7704708B5024800F0C8FB08BD00BF7D
:1009A0004C07002008B5024800F073F908BD00BFED
:1009B0005C04002008B5024801F02AF908BD00BF18
:1009C0000407002008B5024800F063F908BD00BF25
:1009D00084040020034AD2F8883043F47003C2F83C
:1009E0008830704700ED00E008B50B480B4B036002
:1009F0000B4B436000238360C3604FF4806202614D
:100A00000C2242618361C36101F0DAFA00B908BDCA
:100A1000FFF7F0FEFBE700BFAC07002000480040F6
:100A2000A086010030B589B0002303930493059399
:100A3000069307930268234B9A4201D009B030BD58
:100A400004460025019503F5F8331A6C42F4802220
:100A50001A641A6C02F480220192019A02951A6BB0
:100A600042F004021A631B6B03F004030293029B1F
:100A70004FF4406303930223049303230693072355
:100A8000079303A9104800F03FFC1048104B036087
:100A90004FF0006343608560C5604FF4806303617D
:100AA00045618561C5614FF400330362456200F022
:100AB000D7FA18B9054BA3639C63BFE7FFF79AFE0B
:100AC000F8E700BF00480040000802404C07002043
:100AD0002860024008B50B4B1A6842F400721A6095
:100AE0001A6842F480621A601A6842F480721A60CE
:100AF000032000F0F3F90F20FFF708FFFFF7E4FEF3
:100B0000002008BD003C0240034A1168034B1B78DB
:100B10000B441360704700BFF00700200400002062
:100B2000014B1868704700BFF0070020002800F054
:100B3000A18038B5044690F82030D3B122681368FC
:100B400043F001031360FFF7EBFF054623685A6883
:100B500012F0010F10D1FFF7E3FF401B0A28F5D96F
:100B6000636A43F400336362052384F82030012074
:100B700038BDFFF7EFFCE1E71A6822F002021A60C5
:100B8000FFF7CEFF054623685A6812F0020F0DD01A
:100B9000FFF7C6FF401B0A28F5D9636A43F4003308
:100BA0006362052384F820300120E1E7227E012AD8
:100BB0003DD01A6822F080021A60637E012B3BD080
:100BC0002268136823F040031360A37E012B39D001
:100BD0002268136823F020031360E37E012B37D0D3
:100BE0002268136843F010031360237F012B35D074
:100BF0002268136823F008031360637F012B33D04E
:100C00002268136823F004031360A368E2681343A7
:100C100022691343626913436268013A21681343EE
:100C2000CB6100206062012384F82030A0E71A68BD
:100C300042F080021A60C0E72268136843F0400364
:100C40001360C2E72268136843F020031360C4E70F
:100C50002268136823F010031360C6E72268136844
:100C600043F008031360C8E72268136843F00403E5
:100C70001360CAE70120704770477047704770479C
:100C800070477047704770477047704770477047AC
:100C900070472DE9F84F054603685C69D3F8048076
:100CA0009F68D3F80CB0D3F810A0D3F8189014F0C4
:100CB00001063BD017F0010616D001229A6017F00A
:100CC000020F08D117F0040F0CD117F0080606D058
:100CD0004FF4805608E0FFF7CFFF002604E0FFF74F
:100CE000CEFF01E04FF4006617F4807F0DD02B6833
:100CF0004FF480729A6017F4007F40F0868017F4FA
:100D0000806F00F0868046F4005617F4803F0DD0C7
:100D10002B684FF480329A6017F4003F40F08380D4
:100D200017F4802F00F0838046F4004614F0080F7B
:100D300007D01BF0100F04D046F400762B68102269
:100D4000DA6014F0040F02D01BF0080F79D114F010
:100D5000020F04D02B68DB6813F0030F78D114F076
:100D6000400F07D01AF0100F04D046F480662B68AD
:100D700010221A6114F0200F02D01AF0080F6BD164
:100D800014F0100F04D02B681B6913F0030F6AD105
:100D900014F4003F02D018F0100F68D114F4803F13
:100DA00002D018F0080F69D114F4004F7AD018F06F
:100DB000040F74D014F4807F04D019F0010F01D017
:100DC00046F0010614F4007F04D019F0020F01D0A0
:100DD00046F0020614F4806F04D019F0040F01D01D
:100DE00046F0040614F4006F59D019F0700956D07B
:100DF000B9F1400F65D058D8B9F1200F5ED0B9F1E4
:100E0000300F42D146F0200644E02846FFF735FF78
:100E10007BE717F4006F02D046F4804675E728465A
:100E2000FFF72EFF71E72846FFF728FF7EE717F44C
:100E3000002F02D046F4803678E72846FFF721FFDE
:100E400074E72B680822DA602846FFF71CFF7EE76C
:100E50002846FFF717FF82E72B6808221A61284609
:100E6000FFF713FF8CE72846FFF70EFF90E72B688C
:100E700010225A602846FFF709FF8FE72B680822E7
:100E80005A602846FFF703FF8EE7B9F1100F01D132
:100E900046F008062A68936923F0700393612B6873
:100EA00004225A609EB9BDE8F88FB9F1500F0BD0FB
:100EB000B9F1600FEED146F48076EBE746F010060C
:100EC000E8E746F04006E5E746F08006E2E76B6AB1
:100ED0001E436E622846FFF7DBFEE4E7074AD3684D
:100EE00023F4E0631B041B0C000200F4E0600343E6
:100EF00043F0BF6343F40033D360704700ED00E07C
:100F000000B5194BDB68C3F30223C3F1070CBCF136
:100F1000040F28BF4FF0040C03F1040EBEF1060FBE
:100F200018D9033B4FF0FF3E0EFA0CFC21EA0C01EE
:100F300099400EFA03F322EA0303194300280BDB5E
:100F40000901C9B200F1604000F5614080F800136A
:100F50005DF804FB0023E5E700F00F000901C9B2CA
:100F6000024B1954F4E700BF00ED00E014ED00E07F
:100F7000002807DB00F01F02400901239340024ACA
:100F800042F82030704700BF00E100E010B4036871
:100F9000D9B210390C4AA2FB014212090B4CA25CD7
:100FA000C2655F2909D923F47F7323F00303043357
:100FB0008365806D5DF8044B704723F47F7323F0E5
:100FC00003038365F5E700BFABAAAAAA8430000833
:100FD000836A826992B9012B0AD0022B02D00BB12D
:100FE00000207047C36A13F0807F28D1002070472B
:100FF000C36AB3F1C07F24D000207047B2F5005F10
:1010000009D0022B25D9032B25D1C36A13F0807F89
:1010100023D100207047032B03D8DFE803F014042A
:10102000140A00207047C36A13F0807F0DD100209E
:101030007047C36AB3F1C07F09D000207047012018
:101040007047012070470120704701207047012040
:101050007047012070470020704701207047000052
:1010600070B50446FFF75CFD002C5BD005460223FB
:1010700084F83530002384F834302268136823F074
:101080000103136023681A6812F0010F0AD0FFF7FA
:1010900047FD431B052BF5D920236365032084F806
:1010A000350070BD1A68204810406168A2680A4384
:1010B000E1680A4321690A4361690A43A1690A4355
:1010C000E1690A43216A0A430243616A04291ED086
:1010D0001A602668756925F00705636A1D43042BAD
:1010E00007D1A36A1D43E36A1BB12046FFF770FFD7
:1010F00090B975612046FFF749FFE26D3F239340A9
:10110000836000206065012384F83530C9E7E16A17
:10111000206B01430A43DBE740236365012084F829
:101120003500BEE70120BCE73F8010F0F0B583B08A
:10113000044600230193724B1D68724BA3FB0535D7
:10114000AD0A876D3E68C26D08239340334210D0CC
:1011500003681A6812F0040F0BD01A6822F0040218
:101160001A60C26D08239340BB60436D43F00103D6
:101170004365E26D01239340334209D022685269EE
:1011800012F0800F04D0BB60636D43F0020363650F
:10119000E26D04239340334209D02268126812F0B2
:1011A000020F04D0BB60636D43F004036365E26D1E
:1011B00010239340334224D02268126812F0080FA3
:1011C0001FD0BB6023681A6812F4802F0DD01B68F3
:1011D00013F4002F04D1236C9BB12046984710E0F4
:1011E000A36C73B1204698470BE01A6812F4807F15
:1011F00003D11A6822F008021A60236C0BB1204652
:101200009847E26D20239340334255D022681268FC
:1012100012F0100F50D0BB6094F83530DBB2052BC4
:101220000ED023681A6812F4802F33D01B6813F491
:10123000002F2AD1636C002B3ED0204698473BE01C
:101240002268136823F0160313602268536923F0A1
:1012500080035361236CA3B12268136823F0080351
:101260001360E26D3F239340BB60012384F8353067
:10127000002384F83430236D002B3FD0204698475C
:101280003CE0A36C002BE7D1EBE7E36BA3B1204676
:10129000984711E01A6812F4807F09D11A6822F089
:1012A00010021A60012384F83530002384F83430AA
:1012B000E36B0BB120469847636DFBB1636D13F090
:1012C000010F17D0052384F835302268136823F006
:1012D00001031360019B01330193AB4204D82368DF
:1012E0001B6813F0010FF5D1012384F8353000237A
:1012F00084F83430E36C0BB12046984703B0F0BD5E
:1013000000000020B5814E1B00230F2B00F2E4806B
:1013100070B582B060E085685E000324B44025EAC1
:101320000405CC68B4402C438460456825EA020576
:101330004C68C4F300129A402A4342605AE0DC0829
:10134000083450F8246003F0070295000F22AA40E9
:1013500026EA020E0A69AA4042EA0E0240F8242058
:101360005CE0072200E0002202FA0EF22A43023477
:101370005A4D45F824205A4A14686FEA0C0224EAB0
:101380000C054E6816F4803F01D04CEA0405544C1D
:101390002560646802EA04054E6816F4003F01D037
:1013A0004CEA04054E4C6560A46802EA04054E68E8
:1013B00016F4801F01D04CEA0405494CA560E4688E
:1013C00022404D6815F4001F01D04CEA0402444C41
:1013D000E26001330F2B7DD801229A400C6804EAA9
:1013E000020C32EA0404F4D14C6804F00304013C1A
:1013F000012C90D94A6802F00302032A09D0C4687C
:101400005D000322AA4024EA02048A68AA4022431B
:10141000C2604A6802F00302022A90D004684FEAD0
:10142000430E032202FA0EF224EA02044A6802F092
:10143000030202FA0EF2224302604A6812F4403FAD
:10144000C7D000220192274A546C44F4804454646B
:10145000526C02F480420192019A9C08A51C1F4A1A
:1014600052F8255003F003024FEA820E0F2202FACF
:101470000EF225EA02051C4A90423FF474AF02F5D1
:10148000806290421AD002F58062904218D002F534
:101490008062904216D002F58062904214D002F52C
:1014A0008062904212D002F58062904210D002F524
:1014B000806290423FF455AF082255E7012253E77E
:1014C000022251E703224FE704224DE705224BE7B2
:1014D000062249E702B070BD704700BF00380140E6
:1014E000003C014000380240000002400AB1816126
:1014F0007047090481617047002800F0E08170B5F1
:1015000082B00446036813F0010F3BD09F4B9B68E9
:1015100003F00C03042B2CD09C4B9B6803F00C03B2
:10152000082B21D06368B3F5803F4FD0B3F5A02FCF
:1015300052D0964B1A6822F480321A601A6822F44C
:1015400080221A606368002B50D0FFF7E9FA054645
:101550008E4B1B6813F4003F14D1FFF7E1FA401BD8
:101560006428F5D90320B1E1884B5B6813F4800F40
:10157000D8D0864B1B6813F4003F03D06368002B60
:1015800000F09F81236813F0020F54D07F4B9B68BB
:1015900013F00C0F3ED07D4B9B6803F00C03082B1F
:1015A00033D0E368002B68D0794B01221A60FFF733
:1015B000B7FA0546754B1B6813F0020F54D1FFF7BD
:1015C000AFFA401B0228F5D903207FE16F4A136868
:1015D00043F480331360B5E76C4B1A6842F4802201
:1015E0001A601A6842F480321A60ABE7FFF798FA83
:1015F0000546664B1B6813F4003FC3D0FFF790FA13
:10160000401B6428F5D9032060E1604B5B6813F44C
:10161000800FC6D15D4B1B6813F0020F03D0E36847
:10162000012B40F05081594A136823F0F8032169D7
:1016300043EAC1031360236813F0080F42D06369C3
:101640006BB3534B0122C3F8802EFFF769FA0546AE
:101650004E4B5B6F13F0020F34D1FFF761FA401B62
:101660000228F5D9032031E1484A136823F0F80332
:10167000216943EAC1031360DDE7454B00221A608C
:10168000FFF74EFA0546414B1B6813F0020FD2D00C
:10169000FFF746FA401B0228F5D9032016E13C4B20
:1016A0000022C3F8802EFFF73BFA0546374B5B6FED
:1016B00013F0020F06D0FFF733FA401B0228F5D9CA
:1016C000032003E1236813F0040F77D02F4B1B6C2A
:1016D00013F0805F33D1002301932C4B1A6C42F03E
:1016E00080521A641B6C03F080530193019B012507
:1016F000284B1B6813F4807F23D0A368012B34D0C0
:10170000052B38D0214B1A6F22F001021A671A6F8D
:1017100022F004021A67A368002B3DD0FFF700FAFD
:1017200006461A4B1B6F13F0020F46D1FFF7F8F96C
:10173000801B41F288339842F3D90320C6E000258C
:10174000D6E7144A136843F480731360FFF7E8F98F
:101750000646104B1B6813F4807FCED1FFF7E0F9EB
:10176000801B0228F5D90320B0E0084A136F43F02C
:1017700001031367CFE7054B1A6F42F004021A67A3
:101780001A6F42F001021A67C5E700BF0038024035
:101790000000474200700040FFF7C2F90646524B76
:1017A0001B6F13F0020F08D0FFF7BAF9801B41F24C
:1017B00088339842F3D9032088E0EDB9A369002B60
:1017C00000F08380484A926802F00C02082A51D047
:1017D000022B17D0454B00221A66FFF7A1F90446E9
:1017E000414B1B6813F0007F42D0FFF799F9001BB3
:1017F0000228F5D9032069E03B4A136C23F080539B
:101800001364DBE7394B00221A66FFF789F90546B6
:10181000354B1B6813F0007F06D0FFF781F9401BA2
:101820000228F5D9032051E0E369226A1343626A72
:1018300043EA8213A26A5208013A43EA0243E26A87
:1018400043EA0263284A5360284B01221A66FFF7D5
:1018500067F90446244B1B6813F0007F06D1FFF79D
:101860005FF9001B0228F5D903202FE000202DE0AE
:1018700000202BE0012B2BD01B4B5B6803F4800175
:10188000E269914226D103F03F02216A8A4223D1C4
:10189000616A47F6C0721A40B2EB811F1ED103F491
:1018A0004031A26A5208013AB1EB024F18D103F05D
:1018B0007063E26AB3EB026F14D1002006E00120EE
:1018C0007047012002E0012000E0002002B070BD5E
:1018D0000120FBE70120F9E70120F7E70120F5E708
:1018E0000120F3E70120F1E7003802400000474201
:1018F00008B5254B9B6803F00C03042B3FD0082B45
:101900003FD1214B5A6802F03F025B6813F4800F0D
:1019100012D01D4B5968C1F388111C480023A1FB4C
:101920000001FEF755FC184B5B68C3F3014301331C
:101930005B00B0FBF3F025E0134B5968C1F3881C42
:101940004FEA4C11B1EB0C006EEB0E0E4FEA8E130A
:1019500043EA90638101091A63EB0E03DB0043EA5B
:101960005173C90011EB0C0C43F1000399020023E1
:101970004FEA8C2041EA9C51FEF72AFCD3E703484A
:1019800000E0034808BD00BF00380240001BB7005C
:101990000024F400002800F09B8070B50D4604463A
:1019A0004F4B1B6803F007038B4208D2CBB24C4A63
:1019B0001370136803F007038B4240F08B80236899
:1019C00013F0020F17D013F0040F04D0454A9368A8
:1019D00043F4E0539360236813F0080F04D0414AA6
:1019E000936843F4604393603E4A936823F0F003A6
:1019F000A1680B439360236813F0010F32D0636832
:101A0000012B21D09A1E012A25D9364A126812F0DC
:101A1000020F61D033498A6822F0030213438B60BE
:101A2000FFF77EF806462F4B9B6803F00C036268B5
:101A3000B3EB820F16D0FFF773F8801B41F28833A7
:101A40009842F0D9032042E0264A126812F4003F7F
:101A5000E0D101203BE0234A126812F0007FD9D187
:101A6000012034E01E4B1B6803F00703AB4207D98B
:101A7000EAB21B4B1A701B6803F00703AB422DD16F
:101A8000236813F0040F06D0164A936823F4E0533A
:101A9000E1680B439360236813F0080F07D0114AE5
:101AA000936823F46043216943EAC1039360FFF71D
:101AB0001FFF0C4B9B68C3F303130B4AD35CD84046
:101AC0000A4B18600A4B1868FEF720FF002070BD13
:101AD000012070470120FAE70120F8E70120F6E72E
:101AE000003C0240003802406C300008000000203A
:101AF00008000020014B1868704700BF000000205C
:101B000008B5FFF7F7FF044B9B68C3F38223034A32
:101B1000D35CD84008BD00BF003802407C300008CC
:101B200008B5FFF7E7FF044B9B68C3F34233034A52
:101B3000D35CD84008BD00BF003802407C300008AC
:101B40000F2303600B4B9A6802F0030242609A680D
:101B500002F0F00282609A6802F4E052C2609B6870
:101B6000DB0803F4E0530361034B1B6803F0070336
:101B70000B60704700380240003C02407047000094
:101B800090F83D30DBB2012B37D1022380F83D3095
:101B90000268D36843F00103D3600368194A934293
:101BA00020D0B3F1804F1DD0A2F57C42934219D0D2
:101BB00002F58062934215D002F58062934211D003
:101BC00002F5784293420DD002F57052934209D04B
:101BD000A2F59432934205D01A6842F001021A60CD
:101BE000002070479A6802F00702062A07D01A6898
:101BF00042F001021A600020704701207047002067
:101C0000704700BF00000140704770477047704741
:101C100010B5044603681A6912F0020F11D0DA6891
:101C200012F0020F0DD06FF002021A610123037748
:101C300003689B6913F0030F70D0FFF7E6FF0023E2
:101C4000237723681A6912F0040F12D0DA6812F0B1
:101C5000040F0ED06FF004021A6102232377236869
:101C60009B6913F4407F5FD02046FFF7CEFF00232F
:101C7000237723681A6912F0080F12D0DA6812F07D
:101C8000080F0ED06FF008021A610423237723682F
:101C9000DB6913F0030F4ED02046FFF7B6FF002399
:101CA000237723681A6912F0100F12D0DA6812F045
:101CB000100F0ED06FF010021A61082323772368EB
:101CC000DB6913F4407F3DD02046FFF79EFF0023E1
:101CD000237723681A6912F0010F03D0DA6812F033
:101CE000010F36D123681A6912F0800F03D0DA6829
:101CF00012F0800F34D123681A6912F0400F03D01C
:101D0000DA6812F0400F32D123681A6912F0200FFE
:101D100003D0DA6812F0200F30D110BDFFF774FF46
:101D20002046FFF773FF8AE72046FFF76DFF204646
:101D3000FFF76CFF9BE72046FFF766FF2046FFF7A3
:101D400065FFACE72046FFF75FFF2046FFF75EFF29
:101D5000BDE76FF001021A612046FEF73FFDC1E7C3
:101D60006FF080021A61204600F0A1F8C3E76FF01F
:101D700040021A612046FFF74AFFC5E76FF02002D4
:101D80001A61204600F092F8C7E700000368304A65
:101D9000904212D0B0F1804F0FD0A2F57C42904219
:101DA0000BD002F58062904207D002F5806290422B
:101DB00003D002F57842904203D123F070034A68C1
:101DC0001343234A90422AD0B0F1804F27D0A2F586
:101DD0007C42904223D002F5806290421FD002F5EF
:101DE000806290421BD002F57842904217D002F5F3
:101DF0007052904213D002F5806290420FD002F5EB
:101E0000806290420BD0A2F59832904207D002F542
:101E10008062904203D002F58062904203D123F4A5
:101E20004073CA68134323F080034A691343036075
:101E30008B68C3620B688362054B984203D003F53D
:101E40008063984201D10B690363012343617047AA
:101E50000000014040B310B5044690F83D30F3B1A6
:101E6000022384F83D30214651F8040BFFF78EFF22
:101E7000012384F8463084F83E3084F83F3084F8FB
:101E8000403084F8413084F8423084F8433084F89C
:101E9000443084F8453084F83D30002010BD80F88F
:101EA0003C30FFF76BFEDBE701207047704770475F
:101EB00038B504460268136923F44053C1680B43E4
:101EC000136183680269134342691343C2691A4369
:101ED0000168CB6823F4164323F00C031343CB6053
:101EE0000268536923F4407381690B4353610368AB
:101EF000314A934206D002F58062934202D0FFF746
:101F0000FFFD01E0FFF70CFEE369B3F5004F29D0B8
:101F10000021031849411B1841F10001C90041EAA1
:101F20005371DB00181863684FEA83024FEA93731A
:101F300041F10001FEF74CF9204DA5FB003251099B
:101F4000642303FB11031B013233A5FB03235B094D
:101F500003F0F00202EB011203F00F0321681344B7
:101F60008B6038BD0023021843EB0301121841F1C6
:101F70000001C90041EA5271D200101841F100017C
:101F8000626892185B41FEF723F90C4DA5FB003205
:101F90005109642303FB1103DB003233A5FB032348
:101FA0005B095A0002F4F87202EB011203F0070316
:101FB000216813448B60D4E7001001401F85EB516A
:101FC00058B310B5044690F83D300BB3242384F881
:101FD0003D302268D36823F40053D3602046FFF7D6
:101FE00067FF2268136923F49043136122685369E1
:101FF00023F02A0353612268D36843F40053D3606B
:1020000000202064202384F83D3084F83E3010BD49
:1020100080F83C30FEF706FDD8E7012070478428A1
:1020200001D0033070470020704708B500F032FD42
:10203000002008BD2DE9F04387B004460F464569EE
:10204000BDB18669AEB1D0F80480D0F80090B0F987
:102050000800FFF7E4FF0296019500903B462269D5
:102060004946404600F0A6FC0590059807B0BDE83B
:10207000F08365682668D4F81080B4F90800FFF78B
:10208000CEFF05AB019300903B461FFA88F2314624
:10209000284600F0CAFC0128E7D00020E6E708B592
:1020A00000B9012000F040FE002008BD00F1080347
:1020B00043604FF0FF328260C3600361002303601E
:1020C000704700230361704743684B609A688A60D9
:1020D000516099600861036801330360704730B450
:1020E0000D68B5F1FF3F11D000F108031C465B6895
:1020F0001A68AA42FAD963684B6099608C60616083
:10210000086103680133036030BC70470469F2E77B
:102110000369416882688A60416851605A688242F6
:1021200006D0002202611A68013A1A6018687047E6
:1021300082685A60F5E7000082B0002301930D4BDE
:102140001B68B3F1FF3F08D04FF0500383F31188B1
:10215000BFF36F8FBFF34F8FFEE74FF0500383F352
:102160001188BFF36F8FBFF34F8F019B002BFCD003
:1021700002B070470C00002008480068006880F337
:1021800008884FF0000080F3148862B661B6BFF390
:102190004F8FBFF36F8F00DF00BF000008ED00E03E
:1021A000DFF80C00016841F4700101607047000025
:1021B00088ED00E04FF0807340F8043C21F001010D
:1021C00040F8081C054B40F80C3C40F8202C6FF000
:1021D000020340F8243C4438704700BF392100080E
:1021E000074B19680868B0E8F04F80F30988BFF31F
:1021F0006F8F4FF0000080F311887047AFF30080BD
:102200001C4400204FF0500383F31188BFF36F8FFD
:10221000BFF34F8F0B4A136801331360012B00D0BB
:1022200070474FF0E023D3F8043D13F0FF0FF7D0D1
:102230004FF0500383F31188BFF36F8FBFF34F8FBD
:10224000FEE700BF0C000020094B1B6843B94FF0AC
:10225000500383F31188BFF36F8FBFF34F8FFEE7F7
:10226000013B034A13600BB983F31188704700BF29
:102270000C00002000000000000000000000000032
:10228000EFF30980BFF36F8F154B1A681EF0100F24
:1022900008BF20ED108A20E9F04F10602DE90900F9
:1022A0004FF0500080F31188BFF34F8FBFF36F8F53
:1022B00000F060FD4FF0000080F3118809BC196840
:1022C0000868B0E8F04F1EF0100F08BFB0EC108A9D
:1022D00080F30988BFF36F8F704700BFAFF30080B2
:1022E0001C44002008B54FF0500383F31188BFF35E
:1022F0006F8FBFF34F8F00F00FFC28B14FF0E0233A
:102300004FF08052C3F8042D002383F3118808BDD9
:102310004FF0E022002313619361054B1B680549D0
:10232000A1FB03139B09013B536107231361704712
:1023300000000020D34D62104FF0E023D3F8002DB1
:102340003D4B9A421CD04FF0E023D3F8002D3B4B7D
:102350009A421ED030B583B0394B1A78D2B201926E
:10236000FF221A701B78DBB28DF803309DF8033022
:1023700003F05003334A1370334B07221A601BE0FB
:102380004FF0500383F31188BFF36F8FBFF34F8F6C
:10239000FEE74FF0500383F31188BFF36F8FBFF355
:1023A0004F8FFEE7284A1368013B13609DF8033006
:1023B0005B00DBB28DF803309DF8033013F0800F23
:1023C000F0D1214B1B68032B08D04FF0500383F34F
:1023D0001188BFF36F8FBFF34F8FFEE71B021A4ABE
:1023E000136003F4E0631360019BDBB2144A1370C3
:1023F0004FF0E024D4F8203D43F47003C4F8203DAE
:10240000D4F8203D43F07043C4F8203DFFF780FF2F
:1024100000250E4B1D60FFF7C3FED4F8343F43F098
:102420004043C4F8343FFFF7A7FE00F0A3FCFFF7DA
:1024300083FE284603B030BD71C20F4170C20F4108
:1024400000E400E0F4070020F80700200C00002062
:10245000124A12F0070F1ED0D11D21F00701C1F55D
:10246000705313440A460E48026000214160134431
:10247000083B23F007030B48036059601960991A61
:1024800051601360084B1960084B1960084B4FF0FE
:1024900000421A6070474FF47053E4E700080020D0
:1024A00014440020FC0700200844002004440020BD
:1024B00000440020164B1A461B688342FBD3516828
:1024C00002EB010C844509D0416800EB010C634527
:1024D00009D00360904219D01060704740680144F1
:1024E00051601046F0E710B40A4C2468A3420BD0A8
:1024F0005B681944416013681B680360904200D018
:1025000010605DF8044B70470460F7E7704700BF48
:1025100014440020FC07002070B5054600F0F4FAD2
:10252000364B1B68A3B1364B1B681D424ED135B1EB
:10253000083515F0070F02D025F007050835002DE6
:1025400046D0304B1B68AB4251D32F4A146804E08D
:10255000FFF77EFFE7E722461C466368AB4202D2E4
:102560002368002BF7D1254B1B68A34241D0166886
:1025700008362368136063685B1B102B10D9601941
:1025800010F0070F08D04FF0500383F31188BFF30A
:102590006F8FBFF34F8FFEE743606560FFF78AFFE1
:1025A000626818490B689B1A0B60184909688B42CE
:1025B00001D216490B60124B1B6813436360002362
:1025C0002360134A13680133136002E0002600E021
:1025D000002600F02DFB16F0070F0CD04FF0500333
:1025E00083F31188BFF36F8FBFF34F8FFEE7002691
:1025F000EFE70026EDE7304670BD00BFFC07002086
:10260000004400200444002014440020084400201A
:102610000C440020002834D038B50446A0F1080549
:1026200050F8043C174A1268134208D14FF0500387
:1026300083F31188BFF36F8FBFF34F8FFEE750F81E
:10264000081C41B14FF0500383F31188BFF36F8F23
:10265000BFF34F8FFEE723EA020340F8043C00F08B
:1026600053FA54F8041C084A13680B4413602846B4
:10267000FFF720FF054A13680133136000F0D8FA12
:1026800038BD70470044002004440020104400205E
:10269000084B1B681B6823B9074B4FF0FF321A60C9
:1026A0007047044B1B68DB68DB685A68024B1A6092
:1026B000704700BF20440020F44400202DE9F0477B
:1026C00007469846089DDDF824900A9C266B02F187
:1026D0008042013A06EB820626F0070600293AD02E
:1026E0008E464FF0000CBCF10F0F0BD81EF80C20DB
:1026F00004EB0C0383F834201EF80C3013B10CF1FA
:10270000010CF0E7002384F84330062D00D906259C
:10271000E56265644FF0000AC4F848A0201DFFF789
:10272000D0FC04F11800FFF7CCFC2461C5F10705CB
:10273000A5616462C4F84CA084F850A042463946B2
:102740003046FFF737FD2060B9F1000F01D0C9F81E
:102750000040BDE8F087002384F83430D5E700005E
:1027600038B5002407E004EB840293000E481844B7
:10277000FFF79CFC0134062CF5D90C4D2846FFF7D9
:1027800095FC0B4C2046FFF791FC0A48FFF78EFCA6
:102790000948FFF78BFC0948FFF788FC084B1D60D0
:1027A000084B1C6038BD00BF28440020C8440020EE
:1027B000DC440020004500202C4500201845002066
:1027C000204400202444002010B50446FFF71AFDE1
:1027D000214A136801331360204B1B685BB1204B07
:1027E0001B686BB91D4B1B68DA6AE36A9A4207D80B
:1027F0001A4B1C6004E0194B1C601368012B28D095
:10280000184A136801331360E06A01238340164AB3
:1028100011680B43136000EB8000211D134B03EB89
:102820008000FFF751FCFFF70FFD0D4B1B687BB1DC
:102830000A4B1B68DA6AE36A9A4209D24FF0E02336
:102840004FF08052C3F8042DBFF34F8FBFF36F8F4B
:1028500010BDFFF785FFD3E7B44400201C440020DF
:1028600014450020C0440020C44400202844002017
:1028700010B5044690F8513063B1012B11D0022BF2
:102880000ED04FF0500383F31188BFF36F8FBFF367
:102890004F8FFEE7006BFFF7BDFE2046FFF7BAFE45
:1028A00010BDFFF7B7FEFBE70F4B1B68D3B110B5A8
:1028B000FFF7A8FC0D4BDB68DC68201DFFF728FC48
:1028C0000B4A1368013B1360074A1368013B13600E
:1028D000FFF7BAFC2046FFF7CBFF034B1B68002B2A
:1028E000E6D110BD704700BFB84400202C45002041
:1028F000B444002008B5FFF7D7FF074B1B68012B36
:10290000F9D94FF0E0234FF08052C3F8042DBFF304
:102910004F8FBFF36F8FEEE72844002070B5044659
:102920000D461D4B1E681D4B18680430FFF7F0FB69
:1029300050B91A4B1B68DA6A012303FA02F21849EC
:102940000B6823EA02030B60B4F1FF3F0DD034445F
:10295000124B1B685C60A64210D9124B18680F4BD3
:1029600019680431FFF7BBFB70BD002DEFD00B4B96
:10297000196804310C48FFF7A7FBF5E70B4B186803
:10298000064B19680431FFF7AAFB094B1B68A342E9
:10299000EAD9074B1C60E7E7404500201C440020B3
:1029A000C444002024440020184500202044002076
:1029B000F444002030B587B00B9C7CB10C9DB5B1C0
:1029C00054250495049D542D1AD04FF0500383F3E1
:1029D0001188BFF36F8FBFF34F8FFEE74FF05003A7
:1029E00083F31188BFF36F8FBFF34F8FFEE74FF074
:1029F000500383F31188BFF36F8FBFF34F8FFEE750
:102A0000049D0C9D2C63022485F8514000240394FE
:102A1000029505AC01940A9C0094FFF74FFE0C98B8
:102A2000FFF7D2FE059807B030BD2DE9F04385B021
:102A30000746884614461E469000FFF76DFD00B31A
:102A400081465420FFF768FD0546B0B1C0F83090CC
:102A5000E5B1002385F85130039302950D9B019356
:102A60000C9B00933346224641463846FFF726FE2C
:102A70002846FFF7A9FE012005E04846FFF7CAFDFA
:102A8000E6E74FF0FF3005B0BDE8F0834FF0FF30D0
:102A9000F9E7000010B588B000240594069407AA51
:102AA00006A905A8FDF71AFE059B0293069B019354
:102AB00000942346079A0E490E48FFF77BFF0E4B02
:102AC000186090B14FF0500383F31188BFF36F8FFC
:102AD000BFF34F8F094B4FF0FF321A60084B0122B2
:102AE0001A60084B1C60FFF727FC08B010BD00BF40
:102AF0008C300008F5280008F0440020F444002041
:102B00001445002040450020024A13680133136039
:102B1000704700BFBC440020F8B53A4B1B68002B3F
:102B200069D1394B1D6801351D60C5B9374B1B682C
:102B30001B6843B14FF0500383F31188BFF36F8FCD
:102B4000BFF34F8FFEE7314A1168314B18681060B0
:102B50001960304A136801331360FFF799FD2E4B5B
:102B60001B68AB423DD900272C4B1B68DB6A03EB8B
:102B700083039A002A4B9B58012B00D90127294B2C
:102B80001B68002B3CD001273AE001271F4B1B6834
:102B90001B6843B31D4B1B68DB68DC6863689D42A0
:102BA00026D3261D3046FFF7B3FAA36A1BB104F102
:102BB0001800FFF7ADFAE36A01229A401A49086843
:102BC00002430A6003EB83039A0031461448104421
:102BD000FFF77AFAE26A114B1B68DB6A9A42D4D299
:102BE000D4E70027D2E70C4B4FF0FF321A60BBE767
:102BF000094A1360B8E70D4A1368013313600027D0
:102C00003846F8BDBC440020404500202044002048
:102C100024440020F8440020F44400201C440020F8
:102C20002844002044450020C4440020FC440020E7
:102C300038B5354B1B6843B94FF0500383F3118807
:102C4000BFF36F8FBFF34F8FFEE7FFF7DBFA2E4B1B
:102C50001A68013A1A601B68002B4FD12B4B1B6876
:102C60000BB900244BE00024294B1B681BB3284BF5
:102C7000DB68DC6804F11800FFF74AFA251D2846D6
:102C8000FFF746FAE06A01238340224A11680B43AA
:102C9000136000EB800029461F4B03EB8000FFF719
:102CA00013FAE26A1D4B1B68DB6A9A42DCD31C4BA9
:102CB00001221A60D8E70CB1FFF7EAFC194B1C6837
:102CC00084B9174B1C68D4B14FF0E0234FF0805209
:102CD000C3F8042DBFF34F8FBFF36F8F01240EE0B5
:102CE000013C07D0FFF718FF0028F9D00C4B012258
:102CF0001A60F5E70B4B00221A60E2E70024FFF7A9
:102D0000A3FA204638BD00BFBC440020B4440020D4
:102D100000450020C4440020284400201C4400201A
:102D200044450020FC44002010B5A8B10446104BD7
:102D30001B6843B14FF0500383F31188BFF36F8FCB
:102D4000BFF34F8FFEE7FFF7DFFE00212046FFF7BE
:102D5000E5FDFFF76DFF48B94FF0E0234FF08052DB
:102D6000C3F8042DBFF34F8FBFF36F8F10BD00BFAB
:102D7000BC440020204B1B681BB1204B01221A6071
:102D800070471E4B00221A601D4B1B68B3FA83F379
:102D9000DBB2C3F11F0303EB83018A0019498A5890
:102DA00042B94FF0500383F31188BFF36F8FBFF325
:102DB0004F8FFEE7134903EB830082000A445068FB
:102DC0004068506003EB830C4FEA8C0208321144D8
:102DD000884209D003EB83039A000A4B13445B68D3
:102DE000DA68094B1A607047406862469100054AEC
:102DF0000A445060EEE700BFBC4400204445002078
:102E0000C4440020284400201C440020DFF834D0B3
:102E10000D480E490E4A002302E0D458C450043332
:102E2000C4188C42F9D30B4A0B4C002301E0136009
:102E30000432A242FBD3FDF7CDFD00F011F8FDF7FF
:102E40002FFD704700000220000000203C040020FD
:102E5000AC3000083C0400204C450020FEE7000098
:102E600070B50D4E0D4D761BB61006D0002455F8EA
:102E7000043B01349847A642F9D1094E094D761B0F
:102E800000F0D4F8B61006D0002455F8043B013405
:102E90009847A642F9D170BDA0300008A0300008C4
:102EA000A8300008A0300008830730B548D0541E71
:102EB000002A3FD0CAB2034601E0013C3AD303F8EE
:102EC000012B9D07F9D1032C2DD9CDB245EA05255B
:102ED0000F2C45EA054536D9A4F1100222F00F0C5B
:102EE00003F1200EE6444FEA121C03F1100242E9FE
:102EF000045542E9025510327245F8D10CF1010235
:102F000014F00C0F03EB021204F00F0C13D0ACF111
:102F1000040323F003030433134442F8045B934295
:102F2000FBD10CF003042CB1CAB21C4403F8012BF2
:102F30009C42FBD130BD64461346002CF4D1F9E726
:102F400003461446BFE71A46A446E0E7024B13B116
:102F5000024800F005B87047000000006D2F00081F
:102F6000002301461A46184600F01AB838B5084B37
:102F7000084D5B1B9C1007D0043B1D44013C55F8D9
:102F800004399847002CF9D1BDE8384000F054B816
:102F9000AC300008A8300008704700BF704700BF81
:102FA0002DE9F047DFF880A00646DAF800009846E1
:102FB0000F469146FFF7F0FF1A4B1B68D3F84841C4
:102FC00024B365681F2D26DC5EB96B1C0235DAF868
:102FD0000000636044F82570FFF7E0FF0020BDE8C3
:102FE000F08704EB85010123C1F88890D4F888218B
:102FF000AB401A43022EC4F88821C1F80881E4D1FD
:10300000D4F88C211343C4F88C31DEE703F5A674A1
:10301000C3F84841D5E7DAF80000FFF7BFFF4FF0EB
:10302000FF30DCE79430000838040020F8B500BF1A
:10303000F8BC08BC9E467047F8B500BFF8BC08BC99
:043040009E467047F1
:1030440060300008A906000800000000000000002D
:10305400800000000000000000000000646566615C
:10306400756C745461736B00000000000000000074
:10307400010203040607080900000000010203041A
:10308400000610160006101649444C4500000000C6
:043094001000002008
:0830980068D1FF7F0100000078
:0830A0004D2F0008B5010008E6
:0430A800910100088A
:1030AC000024F4000100000010000000AAAAAAAA43
:1030BC0000000000FC02002064030020CC03002070
:1030CC0000000000000000000000000000000000F4
:1030DC0000000000000000000000000000000000E4
:1030EC0000000000000000000000000000000000D4
:1030FC0000000000000000000000000000000000C4
:10310C0000000000000000000000000000000000B3
:10311C0000000000000000000000000000000000A3
:10312C000000000000000000000000000000000093
:10313C000000000000000000000000000000000083
:10314C000000000000000000000000000000000073
:10315C000000000000000000010000000000000062
:10316C000E33CDAB34126DE6ECDE05000B00000027
:10317C000000000000000000000000000000000043
:10318C000000000000000000000000000000000033
:10319C000000000000000000000000000000000023
:1031AC000000000000000000000000000000000013
:0C34DC0000000000000000004845002037
:0400000508002E0DB4
:00000001FF
