:020000040800F2
:10000000E0BD002031030008C9890008615D0008D7
:10001000A588000895180008C59F0008000000008A
:100020000000000000000000000000007102000855
:100030000D1E000800000000CD02000879920008A3
:100040004B0300084B0300084B0300084B03000858
:100050004B0300084B0300084B0300084B03000848
:100060004B0300084B0300084B0300084B03000838
:10007000191C00084B0300084B0300084B03000841
:100080004B0300084B0300084B0300088D190008C0
:100090007D1900084B0300084B0300084B030008C0
:1000A0004B030008AD9300084B0300084B03000806
:1000B000C59300084B0300084B0300084B030008DE
:1000C0004B0300084B0300084B0300084B030008D8
:1000D0004B0300084B0300084B030008919B0008EA
:1000E0004B0300084B0300084B0300084B030008B8
:1000F0004B0300084B0300084B0300084B030008A8
:100100004B0300084B0300084B0300084B03000897
:100110004B0300084B0300084B0300084B03000887
:10012000291C00084B0300084B030008391C000879
:100130004B0300084B0300084B030008AD190008EF
:100140009D1900084B0300084B0300084B030008EF
:100150004B0300084B0300084B0300084B03000847
:100160004B0300084B0300084B0300084B03000837
:100170004B0300084B0300084B030008000000007D
:100180004B0300084B03000800F002F800F060F891
:100190000AA090E8000C82448344AAF10107DA45E2
:1001A00001D100F055F8AFF2090EBAE80F0013F0D4
:1001B000010F18BFFB1A43F00103184784C6000063
:1001C000A4C600000A444FF0000C10F8013B13F0E5
:1001D000070408BF10F8014B1D1108BF10F8015BA0
:1001E000641E05D010F8016B641E01F8016BF9D193
:1001F00013F0080F1EBF10F8014BAD1C0C1B09D1EA
:100200006D1E58BF01F801CBFAD505E014F8016B5B
:1002100001F8016B6D1EF9D59142D6D370470000ED
:100220000023002400250026103A28BF78C1FBD8FF
:10023000520728BF30C148BF0B6070471FB50BF095
:10024000A9FD9DE8030000F03FFA1FBD10B510BDE9
:1002500000F0A6FA1146FFF7F1FF0AF067FD00F083
:10026000C4FA03B4FFF7F2FF03BC00F0F5FA000094
:100270002C4B19680868B0E8F04F80F30988BFF389
:100280006F8F4FF0000080F311887047000000006E
:1002900008480068006880F308884FF0000080F389
:1002A000148862B661B6BFF34F8FBFF36F8F00DF64
:1002B00000BF00BF08ED00E0DFF80C00016841F46A
:1002C00070010160704700BF88ED00E0EFF3098026
:1002D000BFF36F8F134B1A681EF0100F08BF20ED8D
:1002E000108A20E9F04F106009B44FF0500080F3FD
:1002F0001188BFF34F8FBFF36F8F0BF087FA4FF06A
:10030000000080F3118809BC19680868B0E8F04F54
:100310001EF0100F08BFB0EC108A80F30988BFF3FD
:100320006F8F704718020020EFF3058070470000C0
:100330000948804709480047FEE7FEE7FEE7FEE779
:10034000FEE7FEE7FEE7FEE7FEE7FEE704480549B5
:10035000054A064B70470000999300088901000880
:10036000E07D0020E0BD0020E0AD0020E0AD0020F9
:1003700070B5064600F08CF9056806F10B0020F018
:100380000704B4429CBF002070BD2B466A68BAB116
:100390001068A04210D304F1080188423CBF5068A5
:1003A000586007D35168101941601168091B01603A
:1003B00058601460101D70BD13465268002AE7D1C2
:1003C0002146284600F06CF90028DED170BD70B5DA
:1003D0000446051F00F05CF90068002C14BF446857
:1003E00070BD002C18BFAC423CBF20466468F8D3F7
:1003F00001680A18AA4218BF456003D12A68054659
:100400001144016028684119A1421CBF6C6070BD95
:100410006168696021680844286070BD53EA020C75
:1004200000F069802DE9F04B4FF00006002B1FBF54
:10043000B3FA83F503FA05F424FA05F65E4012BF19
:100440001643B2FA82F502FA05F4C5F120051EBF83
:1004500022FA05FC44EA0C04203556EA044C4FEA23
:10046000144418BF641C4FF000084FF0000990427C
:1004700071EB030C39D3002919BFB1FA81F701FAE6
:1004800007F6B0FA80F700FA07F6C7F120071EBF9B
:1004900020FA07FC46EA0C062037B6FBF4FCA7EB73
:1004A0000507103F07F01F0BCBF120060CFA0BFBE2
:1004B0002CFA06F644BFB3460026202FA4BF5E46A2
:1004C0004FF0000B5BEA060C08BF4FF0010B19EB75
:1004D0000B09ABFB027C48EB0608C01B06FB02CCF9
:1004E0000BFB03CC71EB0C01C1E70B460246414606
:1004F0004846BDE8F08B13B54FF000004FF0000107
:10050000AFF30080BDE81C407047032A40F2308002
:1005100010F0030C00F0158011F8013BBCF1020F44
:10052000624498BF11F801CB00F8013B38BF11F8C5
:10053000013BA2F1040298BF00F801CB38BF00F8DC
:10054000013B11F0030300F02580083AC0F0088059
:1005500051F8043B083A51F804CBA0E80810F5E73D
:10056000121D5CBF51F8043B40F8043BAFF3008020
:10057000D20724BF11F8013B11F801CB48BF11F895
:10058000012B24BF00F8013B00F801CB48BF00F865
:10059000012B704710B5203AC0F00B80B1E818501D
:1005A000203AA0E81850B1E81850A0E81850BFF45D
:1005B000F5AF5FEA027C24BFB1E81850A0E81850FC
:1005C00044BF18C918C0BDE810405FEA827C24BF50
:1005D00051F8043B40F8043B08BF7047D20728BFDE
:1005E00031F8023B48BF11F8012B28BF20F8023B2D
:1005F00048BF00F8012B70474FF000020429C0F0FB
:10060000128010F0030C00F01B80CCF1040CBCF144
:10061000020F18BF00F8012BA8BF20F8022BA1EB96
:100620000C0100F00DB85FEAC17C24BF00F8012B7B
:1006300000F8012B48BF00F8012B70474FF0000273
:1006400000B5134694469646203922BFA0E80C50C8
:10065000A0E80C50B1F12001BFF4F7AF090728BFA3
:10066000A0E80C5048BF0CC05DF804EB890028BF1F
:1006700040F8042B08BF704748BF20F8022B11F048
:10068000804F18BF00F8012B7047704770477047C4
:1006900000487047887D002070477047704770475A
:1006A00038B504460A4600206946AFF300800028AA
:1006B00008BF38BD02460099204600F04FF80120DF
:1006C00038BD012000F064B8F8B5AFF300800546EE
:1006D00000200C46102000BF0646A819A0420DD9E4
:1006E000324669460020AFF30080070008BF00F0E3
:1006F0004FF80098A04218BF0546C419FFF7C8FF7D
:1007000005600746F01D20F007004619284600F056
:100710000AF8B44208BFF8BDA21B31463868BDE8EC
:10072000F84000F01BB800210160C0E901107047DB
:100730001020704710B500F00DF8006810BD10B51E
:10074000044600F007F8046010BD00000048704740
:10075000807D002000487047807D0020034640686F
:100760008C46002818BF88423CBF03464068F8D337
:1007700018681844884207D00CF1030020F00700E5
:10078000001D411A521A0146081D0A60FFF71FBEDC
:1007900010B500F039F8BDE8104000F02FB87047F0
:1007A0007546FFF7D3FFAE4605006946534620F075
:1007B0000700854618B020B5FFF7C8FDBDE820400A
:1007C0004FF000064FF000074FF000084FF0000B0D
:1007D00021F00701AC46ACE8C009ACE8C009ACE8C0
:1007E000C009ACE8C0098D46704710B50446AFF3A8
:1007F00000802046BDE81040FFF733BD002801D03F
:1008000000F02AB87047000010B5012805D000217B
:1008100003A000F027F8012010BD09A1F8E70000AF
:1008200053494752544D454D3A204F7574206F66D9
:100830002068656170206D656D6F72790000000041
:100840003A2048656170206D656D6F727920636F25
:10085000727275707465640001491820ABBEFEE7C2
:100860002600020070B505460C460A2000E06D1C0B
:1008700000F011F835B128780028F8D102E0641CA6
:1008800000F009F814B120780028F8D1BDE87040D4
:100890000A20AFF3008008B569468DF800000320F8
:1008A000ABBE08BD9FED241AB5EE002A4CF23C0306
:1008B0000021B7EE004AC0F6000320EE010A30EE38
:1008C000020ABDEEC01AB5EEC00A11EE100AF1EE32
:1008D00010FA9FED1A1AB8BF013802EE100AB8EEEE
:1008E000C22A30EE420A9FED162A20EE010ABDEE22
:1008F000C01A11EE100A30EE021A0246B1EB502F68
:1009000018BF002202EE102A03EB8203B1EB502F36
:1009100018BFB0EE410AB8EE421A93ED002A93EDEB
:10092000013A30EE410A34EE401A20EE030A21EE7D
:10093000021A31EE000A704783F9223E000000449B
:10094000000000C480B5B0F800E00B889E4555D18A
:10095000B0F802C04B889C4550D113889E454DD1BC
:1009600053889C454AD15268496840680CFB0EFC8C
:100970000023B3EB9C0F2BD04FEA9C035B4200BFDC
:1009800091ED000A90ED001A013331EE000A82ED7C
:10099000000A91ED010A90ED011A31EE000A82ED94
:1009A000010A91ED020A90ED021A31EE000A82ED81
:1009B000020A91ED030A90ED031A01F1100100F112
:1009C000100031EE000A82ED030A02F11002D7D1C5
:1009D0001CF0030310D05B4291ED000A90ED001A69
:1009E000013301F1040100F1040031EE000A82ED4F
:1009F000000A02F10402EFD1002000E0FD2040B225
:100A000080BD436042800180704700002DE9F04FB7
:100A10008BB0B0F802E0B0F800B0F34540F052817E
:100A20000B88FD229B4540F04E814F88BB4240F031
:100A30004A814768BBF1000F00F02C814C686FF0D1
:100A40000300009700274FF07E595E46CDF81CE06A
:100A500000EB8B0820460694BBEB060008D0B900DB
:100A60002046FFF7EBFD0020013004348742FBD124
:100A700004F1040A751EC4F800900FD0A8EB87019A
:100A80005046FFF7DBFD0120544600BF013004341F
:100A90008642FBD10137002D2E46DDD1009FDDF8C7
:100AA0001CE0BBF1000F00F0F580042039469FEDFB
:100AB0008A0A07EB8E0C3B1D4FEA8E05ABF1010451
:100AC0007746CDF814B000EB8E0089460190CEF148
:100AD00000000890002000BF584580F0F880069A7A
:100AE00000FB0EF16646B0EE403A02EB810209EBE4
:100AF000810191ED001A099121460A92B0EE414A16
:100B000007E000BF96ED004A72190139B0EE423A93
:100B10001646B5EEC04AF1EE10FA09DDB4EEC34A4E
:100B2000B0EE442AF1EE10FAD8BFB0EE432A08E046
:100B3000B1EE442AB4EEC23AF1EE10FA01DBB0EEA7
:100B4000432A0029DED1B5EE402AF1EE10FA00F07A
:100B5000BE80B0EEC13AB4EE423AF1EE10FA1CBFDC
:100B6000C14311EB0B0104D0002100BF01318C42C5
:100B7000FCD1B5EE401AF1EE10FA00F0A880CDE9F4
:100B8000034CAEEB000C4FF07E51099ABCF1010F03
:100B900011600AD001211A4692ED002A01318F42DC
:100BA00082EE012AA2EC012AF6D108990A9A00BF26
:100BB00092ED002A013182EE012A82ED002A02F133
:100BC0000402F5D10599DDF818A0ACF1010B4FF046
:100BD00000084E46CDF80890804505D10AEB8E0AF4
:100BE00006EB8C0638E000BF099A96ED001ABBF1BF
:100BF000000F92ED002A21EE022A31EE422AA6ECE5
:100C0000012A16D00122002403EB040906EB040E8E
:100C10000132043499ED002A9EED003A974221EE0C
:100C2000022A33EE422A8EED002AEDD1DDF81CE0D7
:100C30002644089A0A9C00BF94ED002A9AED003AD7
:100C4000013204F1040421EE022A33EE422A8AED35
:100C5000002A0AF1040AEFD106EB800608F1010828
:100C60000139B9D1039CDDF808900199DDF810C075
:100C7000DDF814B00130013F0B448C44A4F10104B1
:100C800009F104097FF428AFB5EE401A009FF1EE98
:100C900010FA1ED10EFB0BF10020002259B100BF4B
:100CA00097ED000AB5EE400AF1EE10FA03D10132D9
:100CB00004378A42F4D38A4208BF6FF004000BB0B5
:100CC000BDE8F08FFD2250B20BB0BDE8F08FFB22E3
:100CD000F9E70022F7E700BF000000002DE9F04F20
:100CE00089B046880B889E4240F08E800588138824
:100CF0009D4240F08980B1F802E053889E4540F063
:100D000083800023446852684968B7089FED410A10
:100D1000A3EB9600089026F00300029206F003026F
:100D2000019104EB800B07FB0EF001EB00104FEA82
:100D30008E01009050420790CDE903E60298069597
:100D40000593DDE900AC00EB830800BF002FB0EE97
:100D5000401AE14620462FD0089D63462046B0EE5B
:100D6000401A00BF5E1893ED002A90ED003A90ED16
:100D7000014A90ED025A90ED036A1030013596ED6C
:100D8000007A06EB010323EE022A93ED003A0B44AE
:100D900031EE021A93ED002A24EE074A0B4431EE9D
:100DA000041A25EE033A31EE031A26EE022A31EE3A
:100DB000021AD7D1D14658466AB1079D99ED002A4B
:100DC00090ED003A8944013500F1040023EE022A37
:100DD00031EE021AF2D188ED001A0AF1040A0CF180
:100DE000040CBEF1010E08F10408AFD1049E069D6B
:100DF000DDF80CE0059B0BEB860B04EB86047344DB
:100E0000013D9BD1002000E0FD2040B209B0BDE8CB
:100E1000F08F00BF0000000080B5B0F800E00B8844
:100E20009E4555D1B0F802C04B889C4550D11388DF
:100E30009E454DD153889C454AD1526849684068C7
:100E40000CFB0EFC0023B3EB9C0F2BD04FEA9C0352
:100E50005B4200BF91ED000A90ED001A013331EEC4
:100E6000400A82ED000A91ED010A90ED011A31EE7F
:100E7000400A82ED010A91ED020A90ED021A31EE6C
:100E8000400A82ED020A91ED030A90ED031A01F186
:100E9000100100F1100031EE400A82ED030A02F168
:100EA0001002D7D11CF0030310D05B4291ED000A71
:100EB00090ED001A013301F1040100F1040031EE5C
:100EC000400A82ED000A02F10402EFD1002000E0A6
:100ED000FD2040B280BD00002DE9F04F82B0B0F897
:100EE00000E04B889E454BD144880B889C4247D1FB
:100EF00000234E6804F0030B40684FEA0E184FEAD7
:100F0000940AA3EB9401CBF1000901914FEA8E0101
:100F100032460096BAF1000F1CD0019F344600BF44
:100F20002546046801372C6044686C5005EB0104C9
:100F3000D0F808C044F801C00C44C26800F11000A9
:100F4000625004EB010202EB0104E9D105EB080752
:100F500003E000BF009A02EB8307BBF1000F07D04C
:100F60004D4600BF50F8042B01353A600F44F9D1CB
:100F70000436BEF1010E03F10103CBD1002000E0E5
:100F8000FD2040B202B0BDE8F08F00000023B3EBBB
:100F9000910F2AD080B58B089FED1E0A21F0030C1B
:100FA000C3F1000E034600BF93ED001A93ED012A32
:100FB00093ED023A93ED034A10331EF1010E21EE38
:100FC000011A22EE022A30EE010A23EE031A30EE55
:100FD000020A24EE042A30EE010A30EE020AE3D1BE
:100FE00000EB8C00BDE8804001E09FED0A0A11F0A3
:100FF00003010BD0494200BF90ED001A013100F10E
:10100000040021EE011A30EE010AF5D182ED000A4A
:10101000704700BF000000009FED221A4CF23C0315
:101020000021B7EE004AC0F6000320EE010ABDEE33
:10103000C01AB5EEC00A11EE100AF1EE10FA9FEDDB
:101040001A1AB8BF013802EE100AB8EEC22A30EE02
:10105000420A9FED162A20EE010ABDEEC01A11EEDB
:10106000100A30EE021A0246B1EB502F18BF0022D0
:1010700002EE102A03EB8203B1EB502F18BFB0EE43
:10108000410AB8EE421A93ED002A93ED013A30EE90
:10109000410A34EE401A20EE030A21EE021A31EE24
:1010A000000A704783F9223E00000044000000C49B
:1010B00010B500224FF4E051044802F099FD0122DE
:1010C0001103024802F094FD10BD0000001C024014
:1010D000024803498968886070470000E5100008ED
:1010E000183B00203EB50122124800680068B0F9A4
:1010F0000600104909680968B1F902100D4CCDE9E4
:101100000102009124682468A488644223B2094C37
:1011100024682468248904EB440422B2054C246822
:101120002468B4F90010034CA468606800F004F867
:101130003EBD0000A83C00202DE9F0472DED028BBC
:1011400084B004460D4616461F46DDE90F9ADDF8C9
:10115000388003AA012104F2F440FFF717FF02AA26
:10116000012104F59F60FFF711FF01AA012104F29C
:10117000FC40FFF70BFF04F5806090ED3D0AF0EEB8
:10118000000A20EE200AD0ED3F0A20EE200ADDED15
:10119000030A9DED011A70EE810A9DED021A70EEB0
:1011A000C10A80EE801AB0EE418AB0EE480A08F01B
:1011B0003BFF04F58060D0ED420A30EE200A80ED5E
:1011C000400A90ED3D0AF0EE000A20EE200AD0ED34
:1011D0003E0A20EE200ADDED030A9DED021A70EEB4
:1011E000810A9DED011A70EEC10A80EE801AB0EE00
:1011F000418AB0EE480A08F017FF04F5806080EDE0
:10120000410AD4F8D104D0F81D0001EE100AB8EE5E
:10121000C11AF0EE410A6FF0090109FB01F001EE7D
:10122000100AB8EEC11AB0EE410A04F2B13007F06C
:10123000D9FB2EB1D4F8290100683044C4F8E80481
:10124000D4F82901D0F81D0001EE900AF8EEE11A59
:10125000B0EE611AD4F82901006801EE900AF8EEA8
:10126000E11AF0EE610AD4F8E80401EE900AF8EE13
:10127000E11AB0EE610A04F1990104F1090009F0E4
:101280007EFD2DB1D4F8650200682844C4F8EC0452
:10129000D4F86502D0F81D0001EE900AF8EEE11ACC
:1012A000B0EE611AD4F86502006801EE900AF8EE1B
:1012B000E11AF0EE610AD4F8EC0401EE900AF8EEBF
:1012C000E11AB0EE610A04F2D51104F2451009F0FA
:1012D00056FD2FB1D4F89B0300683844C4F8F004DD
:1012E000D4F89B03D0F81D0001EE900AF8EEE11A45
:1012F000B0EE611AD4F89B03006801EE900AF8EE94
:10130000E11AF0EE610AD4F8F00401EE900AF8EE6A
:10131000E11AB0EE610A04F20B3104F27B2009F00D
:101320002EFDD4F8A73200EE103ABDEEC00A10EE42
:10133000103A1AB2D4F8713100EE103ABDEEC00A7C
:1013400010EE103A19B2D4F8353000EE103ABDEE76
:10135000C00A10EE103A18B2002300F0C5FAD4F813
:10136000A71200EE101ABDEEC00A10EE101A08B255
:1013700000231A46194600F0E1FA842098FBF0F0A9
:10138000D4F838110844C4F8380140F6C411D4F830
:101390003801884203DD0846C4F8380108E0D4F873
:1013A0003801B0F5FA7F03DA4FF4FA70C4F8380167
:1013B0000449D4F838010968486304B0BDEC028BD5
:1013C000BDE8F0879006002010B5012210210248E8
:1013D00002F00EFC10BD00000000024010B500221B
:1013E0001021024802F004FC10BD00000000024081
:1013F00010B501221146024802F0FAFB10BD0000B0
:101400000004024010B500220121024802F0F0FB66
:1014100010BD0000000402401CB5044600200090EE
:101420000190FFF7DBFF922000F048F906226946A1
:10143000122000F02FF9FFF7C7FF9DF8010000020E
:1014400000B29DF8001008438E4908800846B0F9A4
:10145000000000EE100AB8EEC00A8B48D0ED000A7A
:1014600020EE200AD4ED080A20EE200A84ED000ABE
:101470009DF80300000200B29DF802100843814964
:1014800008800846B0F9000000EE100AB8EEC00A65
:101490007D48D0ED000A20EE200AD4ED080A20EEA7
:1014A000200A84ED010A9DF80500000200B29DF8B3
:1014B00004100843734908800846B0F9000000EEA4
:1014C000100AB8EEC00A7048D0ED000A20EE200ADB
:1014D000D4ED080A20EE200A84ED020AFFF792FFFD
:1014E00008226946002000F0D5F8FFF781FF9DF83B
:1014F00000000F284FD165480078E8B39DF803003D
:10150000000200B29DF8021008435E49088094ED85
:10151000090A0846B0F9000000EE900AF8EEE00A69
:101520005B4890ED001A10EE810A84ED030A9DF8E5
:101530000500000200B29DF80410084351490880DC
:1015400094ED0A0A0846B0F9000000EE900AF8EEA1
:10155000E00A4F4890ED001A10EE810A84ED040A6B
:101560009DF80700000200B29DF8061008434549A7
:10157000088094ED0B0A00E00EE00846B0F9000088
:1015800000EE900AF8EEE00A414890ED001A10EEE5
:10159000810A84ED050A44E09DF80300000200B2D0
:1015A0009DF802100843374908800846B0F900004A
:1015B00000EE100AB8EEC00A3548D0ED000A20EE61
:1015C000200A84ED030A9DF80500000200B29DF890
:1015D000041008432B4908800846B0F9000000EECB
:1015E000100AB8EEC00A2A48D0ED000A20EE200A00
:1015F00084ED040A9DF80700000200B29DF8061071
:101600000843204908800846B0F9000000EE100A9F
:10161000B8EEC00A1E48D0ED000A20EE200A84ED84
:10162000050AFFF7DBFEA22000F048F80222694617
:10163000222000F02FF8FFF7C7FE9DF80000C00041
:101640009DF8011040EA61100E4908800846B0F983
:101650000000B0F5806F05DB08460088A0F500604B
:1016600000B208800748B0F9000000EE100AF8EE5A
:10167000C00AB4EE001AB3EE070A00EE810A84ED48
:10168000070A1CBDD200002094000020A400002006
:101690009800002070B506460C46154646F08000BE
:1016A00000F00CF806E0552000F008F82070641CEB
:1016B000681EC5B2002DF6D170BD000001B582B024
:1016C0004FF47A70012301AA02A900900348006830
:1016D00003F096FA9DF804000EBD0000D40000202F
:1016E000024691F82F00042802DA91F8300008B978
:1016F00000207047B1F93400904203DA886B401C37
:1017000088630AE0B1F934004042904203DD886BFF
:10171000401C886301E000208863886BB1F9363093
:10172000984201DD0120E4E70020E2E704E000F058
:1017300045F90A2009F0DCFFF9E7D2ED020A92ED43
:10174000021AB6EE000A00EEC10AD2ED030A92EDCB
:10175000031A00EEC10AD0ED000A20EE200AD2EDF5
:10176000010A92ED021A60EE810A92ED001AD2EDA2
:10177000031A41EE610A90ED011A00EE810AD2EDE2
:10178000010A92ED031A60EE810A92ED001AD2ED81
:10179000021A41EE210A90ED021A00EE810AF0EEE3
:1017A000000A20EE200A81ED000A92ED010AD2ED36
:1017B000020A20EE200AD2ED000A92ED031A00EE92
:1017C000810AD0ED000A60EE200A92ED011AD2EDF6
:1017D000011AB6EE000A01EE610AD2ED031A92ED8B
:1017E000032AB0EE401A01EEC21AD0ED011AB0EE93
:1017F000600A01EE210AD2ED020A92ED031A60EEB0
:10180000810A92ED001AD2ED011A41EE610A90EDC3
:10181000021A00EE810AF0EE000A20EE200A81EDA5
:10182000010A92ED010AD2ED030A20EE200AD2ED60
:10183000000A92ED021A00EEC10AD0ED000A20EE75
:10184000200AD2ED020A92ED031A60EE810A92EDAF
:10185000001AD2ED011A41EE210A90ED011A00EEB4
:10186000810A92ED011AD2ED011AF6EE000A41EE5C
:10187000610A92ED021AD2ED021A41EE610A90ED70
:10188000021A00EE810AF0EE000A20EE200A81ED35
:10189000020A704700BFFEE72DE9FC4107460C46EF
:1018A00015461E46380A8DF80000F8B28DF8010082
:1018B000200A8DF80200E0B28DF80300280A8DF8A6
:1018C0000400E8B28DF80500300A8DF80600F0B289
:1018D0008DF8070008236A469901024800F06CFC65
:1018E000BDE8FC81D40400202DE9FC4107460C46EC
:1018F00015461E46380A8DF80000F8B28DF8010032
:10190000200A8DF80200E0B28DF80300280A8DF855
:101910000400E8B28DF80500300A8DF80600F0B238
:101920008DF8070008236A4640F2FF11024800F0D4
:1019300043FCBDE8FC810000D40400202DE9F04107
:1019400007460C4615461E46380A0A4908704F706D
:10195000200A8870CC70280A08714D71300A88718D
:10196000CE7108230A4640F2FF21034800F024FC10
:10197000BDE8F0812C000020D404002010B50248FE
:1019800001F098FA10BD0000D404002010B5024800
:1019900001F090FA10BD0000D404002010B50248F8
:1019A00001F088FA10BD0000FC04002010B50248C8
:1019B00001F080FA10BD0000FC04002010B52C4896
:1019C000006800680088000A2A49087028480068F2
:1019D0000068007848702648006800684088000A5F
:1019E00088702348006800688078C87020480068C4
:1019F00000688088000A08711D4800680068007946
:101A000048711B4800680068C088000A887118483F
:101A1000006800688079C87108230A465901164891
:101A200000F0CAFB022009F063FE1148006800685C
:101A30000089000A114908700D4800680068007AA2
:101A400048700B4800680068807A88700848006811
:101A50000068C07AC8700020087148718871C87128
:101A600008230A464FF48171034800F0A5FB10BD1E
:101A7000A83C002034000020FC0400203C00002092
:101A8000F8B506460F4615460A2D00DBF8BD681E60
:101A90002D4901EB8014C4F82560C4F81D70D4F8FA
:101AA0001D00D4F81910401AC4F82100D4F81D0004
:101AB000C4F81900207E40B901202076D4F8250012
:101AC000C4F82900D4F825006060D4F82520D4F8A3
:101AD0002930D01AB4F92D1008F034FD0090206898
:101AE0000099084420606068009908446060D4F858
:101AF0002500C4F829006068B4F932104843B4F9ED
:101B00002D1090FBF1F000EE100AB8EEC00A10EEB6
:101B1000100AA0602068B4F932104843B4F92D10BF
:101B200090FBF1F000EE100AB8EEC00A10EE100AB9
:101B300060612146009800B2FFF7D2FD84F83100C1
:101B40000020009000BFA1E7282E0020C16B00EE0E
:101B5000101AB5EEC00AF1EE10FA03DDC16B00EE0B
:101B6000101A04E0C16B00EE101AB1EE400A016ECB
:101B700000EE901AB4EEE00AF1EE10FA00D87047C9
:101B8000C16B00EE101AB5EEC00AF1EE10FA03DDDB
:101B9000C16B00EE101A04E0C16B00EE101AB1EE3A
:101BA000400AC16D00EE901AB4EEE00AF1EE10FAB0
:101BB00005DD9FED180A10EE101AC16127E0C16D16
:101BC00000EE901AC16B00EE101AB5EEC00AF1EEED
:101BD00010FA03DDC16B00EE101A04E0C16B00EED9
:101BE000101AB1EE400A30EEC01AC16D00EE101AA4
:101BF000016E00EE901A30EE600AC1EE000AC16973
:101C000000EE101A20EE800A10EE101AC16100BF1B
:101C1000B5E700000000000010B5024801F044FDE7
:101C200010BD0000AC07002010B5024801F03CFDDB
:101C300010BD0000D005002010B5024801F034FDB1
:101C400010BD000030060020014608781038182327
:101C5000B0FBF3F20848805CC865032A05D9086820
:101C60006FF30900001D886503E008686FF3090041
:101C70008865886D70470000D0BF000801460020CD
:101C80008A6A8B69CBB932B1012A0DD0022A03D0FE
:101C9000032A10D10EE000BFCB6A03F08073B3F1CA
:101CA000807F00D1012007E0CB6AB3F1C07F00D173
:101CB000012001E000E000BF34E08B69B3F5005F74
:101CC0001AD132B1012A07D0022A03D0032A11D136
:101CD0000AE000BF01200EE0CB6A03F08073B3F18D
:101CE000807F00D1012006E0CB6AB3F1C07F00D134
:101CF000012000E000BF15E032B1012A05D0022A20
:101D000004D0032A0CD103E000BF00BF012008E08B
:101D1000CB6A03F08073B3F1807F00D1012000E033
:101D200000BF00BF7047000008B508484068009039
:101D3000074900980968884204D206480068401C98
:101D40000449086002490098086008BD001000E0DE
:101D5000F0000020EC00002010B52DED028B82B0C9
:101D600004460E484068019020680199081A00EE68
:101D7000100AF8EE400A0A4890ED000AB8EE400A50
:101D800080EE801AB0EE418A01982060FFF7CCFF08
:101D9000B0EE480A02B0BDEC028B10BD001000E0AE
:101DA000E00000201249096841F08071104A11607A
:101DB0000021104A51601146096841F0010111608B
:101DC0000D4941430D4A1160114609684FF47A727A
:101DD000B1FBF2F10A4A116008490968064AB1FBF1
:101DE000F2F1084A11600021074A116070470000B3
:101DF000FCED00E0001000E040420F00E000002099
:101E0000E4000020E8000020EC0000207047000003
:101E100009F094FE994908600846006808F074FCCF
:101E2000392009F065FC27E109F088FE9349086034
:101E3000052093490870934890F8C70020F04001AE
:101E4000904880F8C71090F8C70020F020018D4816
:101E500080F8C710002409E104EBC400894901EBB4
:101E60008000C07C00F0010000B9FEE004EBC4007B
:101E7000844901EB8000006880490968081A04EB76
:101E8000C401804A02EB8101098AC1F30B01884237
:101E900060D904EBC400114601EB8000C07CC0F3A4
:101EA000401008BB04EBC40001EB8000C07C20F0B4
:101EB0004000403004EBC40102EB8101C87404EB24
:101EC000C400114601EB8000C07C20F020002030CF
:101ED00004EBC40102EB8101C8746848006804EB9C
:101EE000C40102EB8101886004EBC400654901EB89
:101EF0008000C07CC0F343006149097801EBC10157
:101F0000604A02EB8101C97CC1F34301884201DDD3
:101F10005B490C705B4890F8C70020F040004030EF
:101F2000584981F8C700084690F8C70020F0200003
:101F3000203081F8C70004EBC40001EB8000C069C9
:101F4000002806D004EBC4014E4A02EB8101C869A7
:101F5000804789E004EBC4004A4901EB8000C06877
:101F600046490968081A04EBC401464A02EB81019C
:101F7000B1F81110B0EB111F1BD204EBC4001146D5
:101F800001EB8000C07C20F0400004EBC40102EBB8
:101F90008101C87404EBC400114601EB8000C07CD1
:101FA00020F02000203004EBC40102EB8101C87452
:101FB0005AE004EBC400334901EB8000C07C20F000
:101FC000400004EBC4012F4A02EB8101C87404EB0A
:101FD000C400114601EB8000C07CC00968B104EB6D
:101FE000C40001EB8000C07C20F02000203004EB16
:101FF000C40102EB8101C8740DE004EBC400214967
:1020000001EB8000C07C20F0200004EBC4011D4ADD
:1020100002EB8101C87404EBC4001A4901EB800093
:10202000006804EBC401174A02EB81014968884249
:102030001AD904EBC400114601EB8000006804EBE0
:10204000C40102EB81014968401A00EE100AF8EE63
:10205000400A9FED0D1A81EE200A10EE100A04EBE3
:10206000C40102EB8101486100BF641C052CFFF62E
:10207000F3AE0A2009F03CFBD6E600004400002045
:1020800048000020D03B002000007A4400B58BB00F
:102090000020414981F82800404981F82800404843
:1020A0003D4908603F483D49086000203A49C86200
:1020B0003A49C8624FF4807310223B493648001DEC
:1020C00008F02CFD4FF48073102238493348001D6E
:1020D00008F024FD012009900020079001200890BD
:1020E000002001900290039004900690059001A9B1
:1020F0002B4800F049FD2A4801F0BDF9022128488B
:1021000000F082FC0121264800F07EFC4FF40041E3
:10211000234800F079FC4FF48071214800F074FCF2
:102120004FF480611E4800F06FFC4FF400711C48B2
:1021300000F06AFC4FF40061194800F065FC0E20C5
:102140000A90069001A9174800F01EFD154801F0FD
:1021500092F90221134800F057FC0121114800F0C8
:1021600053FC4FF400410F4800F04EFC4FF48071D7
:102170000C4800F049FC4FF480610A4800F044FC30
:102180004FF40071074800F03FFC4FF40061054830
:1021900000F03AFC0BB000BDC80D0020F80D002087
:1021A000D4040020FC040020280E0020281E00205B
:1021B0000246D162012070472DE9F04397B00746EF
:1021C000884691461D46082D03DD002017B0BDE866
:1021D000F0834E46CDF81C8000243348874205D159
:1021E000302232490BA8FEF7D5F90AE03048874281
:1021F00005D130222F490BA8FEF7CCF901E00020D1
:10220000E4E723E00CA808F0A1FC18B100208DF849
:1022100054001DE0281B082803DB08208DF820004F
:1022200003E0281BC0B28DF820003068CDF82100F3
:102230007168CDF825109DF8200006449DF8200017
:10224000204484B207A90CA808F087FCAC42D9DB73
:1022500000BF9DF8540020BB0CA808F070FC00BB28
:10226000CDF8048000200390049010E007A90CA88A
:1022700008F008FC9DF8200005906B460DF1210246
:1022800001A90B9800F0D5FB01208DF854000B98A4
:1022900000F0F5FD20B10CA808F051FC0028E5D0B5
:1022A00000BF204692E70000D4040020C80D0020A3
:1022B000FC040020F80D002070B504460E461546BB
:1022C000204602F0B9FE3146204603F003FA16B963
:1022D000206845630BE0042E02D12068856306E088
:1022E000082E02D12068C56301E02068056470BD36
:1022F00000B52423034AA2F12401034806F084FD1B
:1023000000BD0000A40D00206807002010B50248A1
:1023100006F0BEFD10BD000068070020D2ED020AE5
:1023200092ED021AB6EE000A00EEC10AD2ED030ADF
:1023300092ED031A00EEC10AD0ED000A20EE200A49
:10234000D2ED010A92ED021A60EE810A92ED001AB6
:10235000D2ED031A41EE210A90ED011A00EE810A36
:10236000D2ED010A92ED031A60EE810A92ED001A95
:10237000D2ED021A41EE610A90ED021A00EE810AD6
:10238000F0EE000A20EE200A81ED000A92ED010A2B
:10239000D2ED020A20EE200AD2ED000A92ED031AD5
:1023A00000EEC10AD0ED000A60EE200A92ED011A9B
:1023B000D2ED011AB6EE000A01EE610AD2ED031A5F
:1023C00092ED032AB0EE401A01EEC21AD0ED011AC6
:1023D000B0EE600A01EE210AD2ED020A92ED031A74
:1023E00060EE810A92ED001AD2ED011A41EE210A47
:1023F00090ED021A00EE810AF0EE000A20EE200AAB
:1024000081ED010A92ED010AD2ED030A20EE200AC5
:10241000D2ED000A92ED021A00EE810AD0ED000A18
:1024200020EE200AD2ED020A92ED031A60EE810A34
:1024300092ED001AD2ED011A41EE610A90ED011AF7
:1024400000EE810A92ED011AD2ED011AF6EE000AB1
:1024500041EE610A92ED021AD2ED021A41EE610AD2
:1024600090ED021A00EE810AF0EE000A20EE200A3A
:1024700081ED020A7047000070B505460E460A2E2F
:1024800001DB002070BD701E1C4901EB801420464A
:1024900000F036F804F82F5F0020A07060702F3C29
:1024A00035B1012D10D0022D15D0032D21D119E009
:1024B0004FF40050A4F82D00132060860A20A08657
:1024C0004FF48070E08615E04FF40050A4F82D0022
:1024D000012060860EE04FF40050A4F82D00242067
:1024E000608607E04FF40050A4F82D003520608688
:1024F00000E000BF00BF2046C4E70000282E0020F7
:1025000010B5044640212046FEF776F810BD72B69D
:1025100000BFFEE770B504460D461646002D05DDEA
:10252000032D03DC002E01DD032E00DD70BD681ECF
:1025300000EBC000E16801EB8001701E00EB400081
:1025400001EB8000A060D4E90020A1689047012839
:1025500002D1A16808688047A0686060A1684868E7
:102560008047A1688868804700BFDFE72B482C4977
:10257000C8600020486088602A4808602A482B49C3
:1025800008602B4848602B4888602B482B4988609E
:1025900048602B4808602B482B4988602B4808600E
:1025A000284848602A482B4908602B4848602B4837
:1025B00088601A480B460ECB0EC0184A1F4B0BCB37
:1025C00018320BC215481D4AD2E900319268C0E9A1
:1025D000033142610146194BD3E900209B68C1E9F0
:1025E0000A034A620846114B0ECB30300EC03C380D
:1025F000124B0ECB3C300EC04838104B0ECB48303F
:102600000EC054380D4BD3E900219B68C0E9161366
:1026100042650D4B0ECB60300EC07047643B00200E
:10262000183B00206B920008CD890008283B002051
:10263000D1890008658C000819820008343B00200D
:10264000F9810008D1100008403B0020B1100008BB
:10265000C57F0008583B0020E57F0008E97F00089F
:1026600010B506F057FD0949086006F04BFD074913
:10267000486006F04BFD05498860FFF777FF00F0E2
:1026800009F803480149C86010BD0000A83C0020BB
:10269000D129000800B5B7B0182131A8FDF7CEFF49
:1026A0005422BC491CA8FDF775FF182116A8FDF798
:1026B000C5FF5422B749543101A8FDF76BFFDDED8A
:1026C0001E1AB0EE611ADDED1D1AF0EE610ADDEDA5
:1026D0001C1AB0EE610A0621AF4806F05FFADDED84
:1026E000031AB0EE611ADDED021AF0EE610ADDEDBB
:1026F000011AB0EE610A0621A748903006F04EFAA2
:10270000DFEDA60A9FEDA50A0221A34806F065FAAF
:10271000DFEDA30A9FEDA30A04219F4806F05DFAAE
:10272000DFED9E0A9FED9D0A02219B48903006F046
:1027300054FADFED9B0A9FED9B0A042196489030E6
:1027400006F04BFA9848994948600020964981F86C
:10275000E4044FF47A70C1F83801B3EE070A01F5CA
:10276000806080ED3D0AB3EE070A80ED3E0AB3EECD
:10277000070A80ED3F0A9FED8A0A80ED400A9FED2F
:10278000880A80ED410A9FED860A80ED420A052104
:102790000320FFF771FE8449C1F8290106210020BA
:1027A000FFF76AFE8049C1F8650207210020FFF7A4
:1027B00063FE7D49C1F89B0301210020FFF75CFE09
:1027C0007949C1F8D10409210120FFF755FE764966
:1027D000C1F8E004DDED241AB0EE611ADDED231A34
:1027E000F0EE610ADDED221AB0EE610A06216E48B4
:1027F000093006F0D3F9DFED690A9FED680A02217E
:102800006948093006F0E9F9DFED650A9FED680ACD
:1028100004216548093006F0E0F9DDED091AB0EE53
:10282000611ADDED081AF0EE610ADDED071AB0EE6F
:10283000610A06215C48993006F0B0F9DFED570ACD
:102840009FED560A02215848993006F0C6F9DFED8F
:10285000540A9FED570A04215348993006F0BDF9F8
:10286000DDED271AB0EE611ADDED261AF0EE610AF1
:10287000DDED251AB0EE610A06214E4806F08EF90C
:10288000DFED460A9FED450A02214A4806F0A5F908
:10289000DFED430A9FED480A0421464806F09DF902
:1028A000DDED0C1AB0EE611ADDED0B1AF0EE610AE7
:1028B000DDED0A1AB0EE610A06213E48903006F0BE
:1028C0006DF9DFED360A9FED350A02213948903067
:1028D00006F083F9DFED320A9FED370A042135480F
:1028E000903006F07AF9DDED2A1AB0EE611ADDEDCE
:1028F000291AF0EE610ADDED281AB0EE610A062110
:102900002E4806F04BF9DFED250A9FED240A02213F
:102910002A4806F062F9DFED220A9FED270A04211A
:10292000264806F05AF9DDED0F1AB0EE611ADDED1A
:102930000E1AF0EE610ADDED0D1AB0EE610A062105
:102940001E48903006F02AF9DFED140A9FED130AB5
:1029500002211A48903006F040F9DFED110A9FED90
:10296000160A04211548903006F037F91449154825
:10297000FFF71EFC0C480021D0F838211248FFF761
:102980009BFC4FF40070114908600820087137B0B3
:1029900000BD000048BE0008313700200000484359
:1029A000000000000080BB4580330020FC3A00207E
:1029B00000A00C46C534002000409C45FB3500209B
:1029C000A9880008C80D002090060020083B0020C0
:1029D00070470000FFF744FE4FF4FA7008F088FEDD
:1029E0000EE0084B1B681B68DA7A064B1B681B68F5
:1029F000997A044B5868FFF78DFD022008F078FEA5
:102A0000EFE70000A83C002010B5024692F8203005
:102A1000012B01D0022B06D11068406908431468CD
:102A20006061002010BD506A40F480205062012097
:102A3000F8E7F0B504460D461E4694F8207020686D
:102A40008368A86800B900E000BF012F01D0022F01
:102A50007CD103F0806030B903F0006018B903F056
:102A60008050002873D0C3F30161022905D9606A40
:102A700040F4000060620120F0BD01208840306019
:102A8000A86860B9B5F800C0E86840EA4C5C206806
:102A900000F5C07000EB0110C0F800C00FE0D5E9F0
:102AA00001C040EACC00D5F80CC040EA0C00D4F8D4
:102AB00000C00CF5C07C0CEB011CCCF80000D5F874
:102AC00010C0206800F5C07000EB0110C0F804C011
:102AD000287D01280ED1206800F5C07000EB0110A0
:102AE000406840F4807C206800F5C07000EB011065
:102AF000C0F804C0D079000692F806C040EA0C4045
:102B000092F805C040EA0C2C10794CEA000C2068C1
:102B100000F5C07000EB0110C0F80CC0D0780006C2
:102B200092F802C040EA0C4092F801C040EA0C2042
:102B300092F800C040EA0C00D4F800C00CF5C07C4C
:102B40000CEB011CCCF80800206801E016E00FE057
:102B500000F5C07000EB0110006840F0010C206827
:102B600000F5C07000EB0110C0F800C0002083E742
:102B7000606A40F40010606201207DE7606A40F402
:102B800080206062012077E7F0B504460A4621689C
:102B900094F82050012D01D0022D7ED1424901F53B
:102BA0000071086840F001000860086820F47C505B
:102BB00008600868566A40EA06200860107D00F048
:102BC0001F06012000FA06F3C8699843C861A1F501
:102BD0000071D069C8B9D1F80C029843C1F80C0251
:102BE000908880B2968940EA064601F510705769D0
:102BF00040F83760108880B2168940EA064601F531
:102C00001070576900EBC7004660D069012819D1E0
:102C1000D1F80C021843C1F80C02908880B21688D3
:102C200040EA064601F51070576940F83760908910
:102C300080B2168940EA064601F51070576900EB2C
:102C4000C7004660906928B9D1F804029843C1F8DA
:102C5000040204E0D1F804021843C1F80402106928
:102C600028B9D1F814029843C1F8140204E0D1F84D
:102C700014021843C1F81402106A012804D1D1F8D3
:102C80001C021843C1F81C02D1F8000220F0010018
:102C9000C1F800020020F0BDFFE7606A40F4802028
:102CA00060620120F7E700000064004010B588B0C2
:102CB0000446104884420AD120220F496846FDF795
:102CC00069FC0D4810380FC807F04CFC0CE00B48AD
:102CD000844209D120220A496846FDF75BFC084876
:102CE00010380FC807F03EFC204600F085FB08B006
:102CF00010BD0000D4040020D80D0020FC040020EA
:102D0000080E002070B5044694F82050012D01D023
:102D1000022D7DD151B92068C06800F0030080B950
:102D2000606A40F400106062012070BD2068006994
:102D300000F0030028B9606A40F4001060620120CE
:102D4000F3E7206800F5D87000EB0110006800F090
:102D500004009060906840B9206800F5D87000EBDE
:102D600001100068400D106007E0206800F5D87081
:102D700000EB01100068C0085060206800F5D870B2
:102D800000EB0110006800F00200D060206800F540
:102D9000D87000EB0110406800F00F00106120684F
:102DA00000F5D87000EB0110406800F47F40000A85
:102DB0009061206800F5D87000EB01104068000CAD
:102DC0005061206800F5D87000EB01108068187021
:102DD000206800F5D87000EB0110806800F47F4097
:102DE000000A5870206800F5D87000EB0110806868
:102DF00000F47F00000C9870206800F5D87000EB9C
:102E000001108068000ED870206800F5D87000E0CE
:102E10002FE000EB0110C0681871206800F5D87031
:102E200000EB0110C06800F47F40000A5871206870
:102E300000F5D87000EB0110C06800F47F00000CB2
:102E40009871206800F5D87000EB0110C068000E82
:102E5000D87131B92068C06840F020002668F06061
:102E600005E02068006940F02000266830610020FD
:102E70005BE7606A40F480206062012055E701460C
:102E8000002091F82020012A01D0022A11D10B68DC
:102E90009B6803F0806303B1401C0B689B6803F0E0
:102EA000006303B1401C0B689B6803F0805303B1BF
:102EB000401C70472DE9F05F0446002520684669F4
:102EC0002068D0F80490206887682068D0F80CA0AB
:102ED0002068D0F810B02068D0F8188006F0010003
:102EE000002855D007F00100C0B10120216888609A
:102EF00007F0020018B1204600F0EEFA0EE007F0ED
:102F0000040010B145F4006508E007F0080010B1B6
:102F100045F4805502E0204600F0DCFA07F48070AA
:102F2000C8B14FF480702168886007F4007018B150
:102F3000204600F0FBFA0EE007F4806010B145F483
:102F4000005508E007F4006010B145F4804502E048
:102F5000204600F0E9FA07F48030C8B14FF4803021
:102F60002168886007F4003018B1204600F008FBA3
:102F70000EE007F4802010B145F4004508E007F4A6
:102F8000002010B145F4803502E0204600F0F6FA4A
:102F900006F0080038B10AF0100020B145F40075C1
:102FA00010202168C86006F0040040B10AF0080053
:102FB00028B108202168C860204600F02EFA06F0EB
:102FC000020038B12068C06800F0030010B120464C
:102FD00000F024FA06F0400038B10BF0100020B1E8
:102FE00045F4806510202168086106F0200040B19A
:102FF0000BF0080028B1082021680861204600F085
:1030000037FA06F0100038B12068006900F00300BC
:1030100010B1204600F02DFA06F4003040B109F05E
:10302000100028B1102021684860204600F022FAE4
:1030300006F4803040B109F0080028B1082021686A
:103040004860204600F0C4FA06F4004088B309F056
:10305000040078B306F4807020B108F0010008B1D4
:1030600045F0010506F4007020B108F0020008B137
:1030700045F0020506F4806020B108F0040008B1B4
:1030800045F0040506F40060A0B108F0700088B1B6
:1030900008F07000402817D006DC10280BD020283C
:1030A0000CD0302819D10CE0502810D0602814D151
:1030B00010E01DE019E045F008050FE045F01005AF
:1030C0000CE045F0200509E045F0400506E045F03C
:1030D000800503E045F4807500E000BF00BF206874
:1030E000806920F0700021688861042021684860B0
:1030F0002DB1606A284360622046FFF7D7FDBDE826
:10310000F09F70B504460CB9012070BD94F8200002
:1031100010B9204600F0B0F82068006840F00100C7
:103120002168086000F06AFD05460DE000F066FDCC
:10313000401B0A2808D9606A40F40030606205200C
:1031400084F820000120E0E72068406800F00100DA
:103150000028EBD02068006820F002002168086099
:1031600000F04CFD05460DE000F048FD401B0A282C
:1031700008D9606A40F400306062052084F82000BD
:103180000120C2E72068406800F002000028EBD16F
:10319000207E012806D12068006840F08000216868
:1031A000086005E02068006820F080002168086061
:1031B000607E012806D12068006840F04000216848
:1031C000086005E02068006820F040002168086081
:1031D000A07E012806D12068006840F02000216808
:1031E000086005E02068006820F020002168086081
:1031F000E07E012806D12068006820F010002168D8
:10320000086005E02068006840F010002168086050
:10321000207F012806D12068006840F0080021685E
:10322000086005E02068006820F008002168086058
:10323000607F012806D12068006840F00400216802
:10324000086005E02068006820F00400216808603C
:10325000D4E90201084321690843616908436168B0
:10326000491E08432168C86100206062012084F87B
:103270002000002049E7000010B586B00446142164
:1032800001A8FDF7DBF956492068884249D1554825
:103290000068401C534908600846006801280FD1A7
:1032A00000BF002000905048006840F000704E4978
:1032B00008600846006800F00070009000BF00BF82
:1032C00000BF0020009048481038006840F0080017
:1032D0004549103908600846006800F00800009071
:1032E00000BF00BF03200190022002900020039045
:1032F000032004900920059001A93C4800F07EFBC2
:1033000000220521132000F069FE132000F056FE74
:1033100000220521142000F061FE142000F04EFE72
:103320005CE033492068884258D100BF00200090FB
:103330002D48006840F080602B490860084600680E
:1033400000F08060009000BF00BF26480068401C6D
:10335000244908600846006801280FD100BF0020FA
:1033600000902148006840F000701F49086008463E
:10337000006800F00070009000BF00BF00BF002098
:10338000009019481038006840F0020016491039C2
:1033900008600846006800F00200009000BF00BF0F
:1033A00060200190022002900020039003200490EE
:1033B0000920059001A90F4800F020FB00220521FB
:1033C0003F2000F00BFE3F2000F0F8FD0022052119
:1033D000402000F003FE402000F0F0FD06B010BDDC
:1033E000006400401800002040380240000C0240F9
:1033F00000680040000402400146002091F82020AF
:10340000012A01D0022A02D100234B6204E04B6A58
:1034100043F480234B6201207047704710B58AB097
:10342000044601AB03AA00212046FFF76BFC0C48C1
:10343000844208D10B48C06A80B10A4801A9C26A17
:1034400003A890470AE00848844207D10748C06AA9
:1034500020B1064801A9C26A03A890470AB010BD6E
:10346000D4040020C80D0020FC040020F80D00202A
:1034700070477047704770B5044694F820000128E3
:1034800022D1022084F820002068006820F001008A
:103490002168086000F0B2FB05460DE000F0AEFBCD
:1034A000401B0A2808D9606A40F400306062052099
:1034B00084F82000012070BD2068406800F0010001
:1034C0000028EBD16062F6E7606A40F40020606299
:1034D0000120F0E77047000010B588B004460E48A0
:1034E00084420AD120220D496846FDF753F80B4863
:1034F00010380FC807F036F80CE00948844209D1AB
:10350000202208496846FDF745F8064810380FC8DC
:1035100007F028F808B010BDD4040020D80D002012
:10352000FC040020080E00207047000010B588B091
:1035300004460E4884420AD120220D496846FDF710
:1035400029F80B4810380FC807F00CF80CE00948B0
:10355000844209D1202208496846FDF71BF8064835
:1035600010380FC806F0FEFF08B010BDD4040020CC
:10357000D80D0020FC040020080E00207047000039
:1035800010B588B004460E4884420AD120220D4965
:103590006846FCF7FFFF0B4810380FC806F0E2FF43
:1035A0000CE00948844209D1202208496846FCF70A
:1035B000F1FF064810380FC806F0D4FF08B010BD60
:1035C000D4040020D80D0020FC040020080E0020A8
:1035D000704770B50446A56D00F010FB064694F8E0
:1035E0003500022808D08020606500BF002084F8E4
:1035F000340000BF012070BD2068006820F0160074
:10360000216808602068406920F0800021684861D6
:10361000206C08B9A06C28B12068006820F0080070
:10362000216808602068006820F0010021680860B7
:1036300010E000F0E3FA801B05280BD9202060651C
:10364000032084F8350000BF002084F8340000BF58
:103650000320D0E72068006800F001000028E8D1CE
:1036600094F85C103F208840A860012084F8350061
:1036700000BF002084F8340000BF00BFBBE7014654
:1036800091F83500022803D080204865012070475A
:10369000052081F835000868006820F001000A68FC
:1036A00010600020F3E70000F8B504460020009009
:1036B0008C4800684FF41651B0FBF1F7A56D2E68E9
:1036C00094F85C1008208840304098B12068006869
:1036D00000F0040070B12068006820F00400216848
:1036E000086094F85C1008208840A860606D40F085
:1036F0000100606594F85C1001208840304068B19A
:103700002068406900F0800040B194F85C1001200E
:103710008840A860606D40F00200606594F85C101D
:1037200004208840304068B12068006800F0020042
:1037300040B194F85C1004208840A860606D40F0AF
:103740000400606594F85C1010208840304078B325
:103750002068006800F0080050B394F85C10102056
:103760008840A8602068006800F4802080B120684C
:10377000006800F4002028B9206CC8B12046216CF4
:10378000884715E0A06C98B12046A16C88470FE0EF
:103790002068006800F4807028B92068006820F074
:1037A000080021680860206C10B12046216C884711
:1037B00094F85C10202088403040002865D02068B4
:1037C000006800F0100000285FD094F85C10202002
:1037D0008840A86094F83500052828D12068006842
:1037E00020F01600216808602068406920F0800001
:1037F00021684861206C08B9A06C28B12068006875
:1038000020F008002168086094F85C103F20884090
:10381000A860012084F8350000BF002084F834003F
:1038200000BF206D10B12046216D8847F8BD20688B
:10383000006800F4802080B12068006800F4002057
:1038400028B9606C10B12046616C88471DE0E06BC0
:10385000D8B12046E16B884717E02068006800F483
:10386000807068B92068006820F010002168086046
:10387000012084F8350000BF002084F8340000BF28
:10388000E06B10B12046E16B8847606D38B3606D26
:1038900000F00100F0B1052084F8350020680068D0
:1038A00020F001002168086000BF0098401C0090D3
:1038B000B84200D905E02068006800F00100002847
:1038C000F3D100BF012084F8350000BF002084F848
:1038D000340000BFE06C10B12046E16C884700BFA7
:1038E000A4E70000140200202DE9F0410446002561
:1038F00000F084F9074614B90120BDE8F081606A40
:1039000000B100BF022084F8350000BF002084F819
:10391000340000BF2068006820F0010021680860C2
:103920000AE000F06BF9C01B052805D9202060656E
:10393000032084F83500E0E72068006800F001000B
:103940000028EED12068056821480540D4E901012E
:103950000843E16808432169084361690843A16994
:103960000843E1690843216A08430543606A042863
:1039700003D1D4E90B0108430543206805602068A2
:10398000456925F00705606A0543606A04280DD182
:10399000A06A0543E06A48B12046FEF76FF928B1F6
:1039A00040206065012084F83500A6E72068456165
:1039B0002046FEF749F9064694F85C103F208840FF
:1039C000B06000206065012084F83500002094E795
:1039D0003F8010F070B5044600F010F90646254609
:1039E000681C10B104480078054400BF00F006F9D7
:1039F000801BA842FAD370BD10020020F8B5024621
:103A00000B460025002400200021D6E0012606FAFE
:103A100001F51E6806EA0504AC4274D11E7906F071
:103A20000306012E04D01E7906F00306022E13D1E0
:103A300090684F000326BE40B0434F00DE68BE4092
:103A400030439060506801268E40B0431E79C6F323
:103A500000168E40304350601E7906F00306032E98
:103A600009D0D0684F000326BE40B0434F009E6887
:103A7000BE403043D0601E7906F00306022E13D1FB
:103A8000CF0802F1200656F827004E07F70E0F2642
:103A9000BE40B0434F07FF0E1E69BE403043CF0803
:103AA00002F1200646F8270010684F000326BE40AA
:103AB000B0431E7906F003064F00BE40304310604D
:103AC0005E6806F44036002E76D000BF00260096D1
:103AD0003C4E366846F480463A4F3E603E46366875
:103AE00006F48046009600BF00BF374E8F0856F898
:103AF00027008E07370F0F26BE40B043334EB24229
:103B000002D1002624E057E0314EB24201D1012615
:103B10001EE0304EB24201D1022619E02E4EB242D2
:103B200001D1032614E02D4EB24201D104260FE04C
:103B30002B4EB24201D105260AE02A4EB24201D1F3
:103B4000062605E0284EB24201D1072600E00826ED
:103B50008F073F0FBE4030431B4E8F0846F82700AB
:103B6000224E3068A0435E6806F4801606B12043FA
:103B70001E4E3060361D3068A0435E6806F40016A5
:103B800006B12043194E361D3060184E361F30687E
:103B9000A0435E6806F4003606B12043134E361F7C
:103BA0003060361F3068A0435E6806F4803606B188
:103BB00020430E4E083E3060491C1029FFF426AF0A
:103BC000F8BD0000443802400838014000000240BF
:103BD0000004024000080240000C024000100240B5
:103BE0000014024000180240001C0240083C014042
:103BF0000AB1816101E00B048361704701480068EC
:103C0000704700000802002070B504460CB901207E
:103C100070BD94F83D0028B9002084F83C0020468F
:103C200000F0DAF8242084F83D002068006820F0D5
:103C30000100216808602068006840F400402168A5
:103C400008602068006820F400402168086000F0E7
:103C500001FC05465C496068884206D85B4885429D
:103C600001D2012007E0002005E05948854201D239
:103C7000012000E00020012800D1C9E75548B5FB2C
:103C8000F0F62068406820F03F003043216848602B
:103C90004D496068884201D8701C07E04FF4967067
:103CA00070434FF47A71B0FBF1F0401C2168096A4F
:103CB00021F03F0108432168086243496068884257
:103CC00014D8681E61684900B0FBF1F0401CC0F3D5
:103CD0000B00042801D204203DE0681E6168490001
:103CE000B0FBF1F0401CC0F30B0034E0A06838B921
:103CF000681E616801EB4101B0FBF1F0401C0AE075
:103D0000681E616801EBC10202EB0111B0FBF1F02A
:103D1000401C40F48040C0F30B0008B901201AE0B9
:103D2000A06848B9681E616801EB4101B0FBF1F081
:103D3000401CC0F30B000CE0681E616801EBC1027F
:103D400002EB0111B0FBF1F0401CC0F30B0040F49A
:103D5000804040F400402168C9694CF6FF729143ED
:103D600008432168C861D4E907010843216809684C
:103D700021F0C001084321680860D4E9031008431A
:103D80002168896848F2FF329143084321688860BE
:103D9000D4E9050108432168C96821F0FF010843FF
:103DA0002168C8602068006840F001002168086050
:103DB00000202064202084F83D000020206384F847
:103DC0003E0000BF24E70000A086010080841E00A2
:103DD00000093D0040420F0010B586B00446142192
:103DE00001A8FCF72BFC1B49206888422FD100BF9B
:103DF000002000901848006840F020001649086034
:103E00000846006800F02000009000BF00BF0320BB
:103E100001901220029000200390032004900420BF
:103E2000059001A90D48FFF7E9FD00BF00200090B3
:103E300009481030006840F48000074910310860DC
:103E40000846006800F48000009000BF00BF06B084
:103E500010BD0000005800403038024000140240FD
:103E6000034800680349097808440149086070471D
:103E7000080200201002002010B50D48006840F430
:103E800000700B4908600846006840F480600860D4
:103E90000846006840F480700860032000F0DCF8F9
:103EA0000F2000F007F800F05FF8002010BD0000C0
:103EB000003C02402DE9F04188B004460027B84696
:103EC00000BF002001902448006840F00100224912
:103ED00008600846006800F00100019000BF00BFC4
:103EE00002A903A800F08EFA069F1FB900F0B2FAEB
:103EF000054602E000F0AEFA45001848B5FBF0F0C8
:103F0000A0F101084FF080401549086040F2E73108
:103F10001348C160C0F804800021016181608161A3
:103F200001F01AF8064696B90D4801F0D3F8064696
:103F30006EB91C2000F042F8102C07D20022214656
:103F40001C2000F04BF80748046000E001263046D2
:103F500008B0BDE8F08100004038024040420F0048
:103F6000180D00200C02002008B500BF00200090B2
:103F70001148006840F480400F4908600846006816
:103F800000F48040009000BF00BF00BF0020009000
:103F9000081F006840F08050091F0860084600684C
:103FA00000F08050009000BF00BF00220F21901E43
:103FB00000F014F808BD00004438024001460846ED
:103FC000002809DB00F01F0301229A4043099B00EF
:103FD00003F1E023C3F8002100BF70472DE9F05F33
:103FE00080460D461646002706F002F80746394679
:103FF0002A46334601F00700C0F1070ABAF1040F60
:1040000002D94FF0040A01E0C0F1070AD14600F1DD
:10401000040ABAF1070F02D24FF0000A01E0A0F142
:10402000030AD4464FF0010A0AFA09FAAAF1010A72
:104030000AEA020A0AFA0CFA4FF0010B0BFA0CFB1F
:10404000ABF1010B0BEA030B4AEA0B042146404695
:1040500005F0D6FFBDE8F09F00BF00F00702064B59
:1040600019684FF6FF031940044B0B4343EA022142
:10407000014B196000BF70470CED00E00000FA052D
:1040800070B58AB0044614B901200AB070BD266824
:1040900094F8BD0428B9002084F8BC04204600F040
:1040A000A3F8032084F8BD04F06B00F4807008B915
:1040B00000212161206805F0E5FE282204F11001AD
:1040C0006846FCF767FA94E80F0005F06BFD20B135
:1040D000022084F8BD040120D7E70021206805F004
:1040E00034FF002531E0012105EBC50204F13C005D
:1040F00000EB8200417005EBC50104F13C0000F8C3
:10410000215005EBC50100EB81000581002105EB85
:10411000C50204F13C0000EB8200017105EBC50211
:1041200004F13C0000EB8200C16005EBC50204F124
:104130003C0000EB8200016105EBC50204F13C008C
:1041400000EB82008161681CC5B26068A842CAD8D1
:1041500000252AE0002105EBC50204F51F7000EBE5
:104160008200417005EBC50104F51F7000F8215075
:10417000002105EBC50200EB8200017105EBC502D1
:1041800004F51F7000EB8200C16005EBC50204F569
:104190001F7000EB8200016105EBC50204F51F7082
:1041A00000EB82008161681CC5B26068A842D1D86A
:1041B000282204F110016846FCF7ECF994E80F009E
:1041C00005F070FD20B1022084F8BD0401205CE7F9
:1041D000002084F83800012084F8BD04206805F030
:1041E0004FFD002051E7000010B586B004461421B1
:1041F00001A8FCF723FA2068B0F1A04F3AD100BF24
:10420000002000901C48006840F001001A49086036
:104210000846006800F00100009000BF00BF4FF4A6
:10422000E0500190022002900020039003200490AF
:104230000A20059001A91148FFF7E0FB00BF0E48D6
:10424000001D006840F080000B49091D086000BF98
:104250000020009008481430006840F4804006496F
:10426000143108600846006800F48040009000BFE8
:1042700000BF00BF06B010BD303802400000024051
:1042800070B504460D460CB9012070BD5848006851
:1042900000F00700A84209D255490D700846006891
:1042A00000F00700A84201D00120EEE7207800F0DE
:1042B000020002281DD1207800F00400042805D156
:1042C0004C48006840F4E0504A490860207800F00B
:1042D0000800082805D14748006840F46040454977
:1042E00008604448006820F0F000A1680843414994
:1042F0000860207800F00100A8B36068012807D1A9
:104300003C4808380068C0F34040B8B90120BCE719
:104310006068022802D06068032807D13548083851
:104320000068C0F3406048B90120AEE73148083862
:104330000068C0F3400008B90120A6E72D480068D6
:1043400020F00300616808432A490860FFF756FC23
:10435000064609E0FFF752FC801B41F28831884293
:1043600002D9032091E707E02248006800F00C0022
:104370006168B0EB810FEDD11D48006800F00700C7
:10438000A84209D91A490D700846006800F00700D4
:10439000A84201D0012078E7207800F0040004282A
:1043A00007D11448006820F4E050E168084311493F
:1043B0000860207800F00800082808D10D4800683F
:1043C00020F46040216940EAC1000A49086000F019
:1043D00061F808490968C1F30311074A515CC840F4
:1043E0000649086006480068FFF764FD00204CE7B6
:1043F000003C024008380240D8BF000814020020E8
:104400000C0200200F2202600D4A126802F0030223
:1044100042600B4A126802F0F0028260084A126899
:1044200002F4E052C260064A126802F46042D20806
:104430000261044A126802F007020A607047000035
:1044400008380240003C0240014800687047000004
:104450001402002000B5FFF7F7FF04490968C1F313
:104460008221034A515CC84000BD00000838024068
:10447000E8BF000800B5FFF7E7FF04490968C1F38A
:104480004231034A515CC84000BD00000838024078
:10449000E8BF00082DE9F047002400250026A146CA
:1044A0002548006800F00C0020B1042805D0082839
:1044B0003AD105E0DFF8849039E0DFF8849036E007
:1044C0001D48001F006800F03F041B48001F0068E3
:1044D00000F4800078B11A481749091F0968C1F330
:1044E0008811A0FB01700146224600233846FBF7E5
:1044F00095FF05460EE011480F49091F0968C1F3F1
:104500008811A0FB01700146224600233846FBF7C4
:1045100085FF05460848001F0068C0F30140401CA5
:104520004600B5FBF6F902E0DFF8109000BF00BFCF
:104530004846BDE8F0870000083802400024F40037
:10454000001BB700F8B504460CB90120F8BD20786F
:1045500000F00100002874D0F948006800F00C0059
:1045600004280DD0F648006800F00C00082813D18C
:10457000F348001F006800F48000B0F5800F0BD1F5
:10458000EF4808380068C0F34040002859D0606800
:10459000002856D10120D9E700BF6068B0F5803F00
:1045A00008D1E7480838006840F48030E449083909
:1045B00008601EE06068B0F5A02F0DD1E048083813
:1045C000006840F48020DE49083908600846006829
:1045D00040F4803008600CE0D9480838006820F4C6
:1045E0008030D749083908600846006820F48020E8
:1045F000086000BF606890B1FFF700FB054606E069
:10460000FFF7FCFA401B642801D903209EE7CC4841
:1046100008380068C0F340400028F1D011E0FFF7EF
:10462000EDFA054606E0FFF7E9FA401B642801D9D8
:1046300003208BE7C24808380068C0F340400028D8
:10464000F1D1207800F0020002285FD1BC48006858
:1046500000F00C0058B1BA48006800F00C000828BF
:104660001CD1B748001F006800F48000B0B9B448FE
:1046700008380068C0F3400020B1E068012801D08C
:10468000012063E7AE480838006820F0F80021698F
:1046900040EAC100AA490839086037E0E06800B381
:1046A0000120A8490860FFF7A9FA054606E0FFF7D0
:1046B000A5FA401B022801D9032047E7A048083883
:1046C0000068C0F340000028F1D09D480838006819
:1046D00020F0F800216940EAC100994908390860D2
:1046E00014E0002097490860FFF788FA054606E0C5
:1046F000FFF784FA401B022801D9032026E79048DF
:1047000008380068C0F340000028F1D1207800F09C
:10471000080008282CD16069A8B101208A490860E6
:10472000FFF76CFA054606E0FFF768FA401B02281F
:1047300001D903200AE782486C300068C0F34000CA
:104740000028F1D014E000207F490860FFF756FAF6
:10475000054606E0FFF752FA401B022801D9032064
:10476000F4E677486C300068C0F340000028F1D1CF
:10477000207800F00400042870D1002770483830F9
:10478000006800F0805090B900BF002000906C4895
:104790003830006840F08050694938310860084678
:1047A000006800F08050009000BF00BF01276748FC
:1047B000006800F48070B0B96448006840F480700C
:1047C00062490860FFF71AFA054606E0FFF716FA95
:1047D000401B022801D90320B8E65C48006800F4B9
:1047E00080700028F2D000BFA068012808D154488A
:1047F0006830006840F001005149683108601DE0F0
:10480000A06805280DD14E486830006840F00400CB
:104810004B49683108600846006840F001000860B4
:104820000CE047486830006820F0010044496831D6
:1048300008600846006820F00400086000BFA06817
:10484000A8B1FFF7DBF9054609E0FFF7D7F9401BF0
:1048500041F28831884202D9032077E626E03848C1
:1048600068300068C0F340000028EED013E0FFF786
:10487000C5F9054608E0FFF7C1F9401B41F2883150
:10488000884201D9032061E62D4868300068C0F3F2
:1048900040000028EFD1012F07D1294838300068A7
:1048A00020F0805026493831086000BFA0690028F8
:1048B00045D02348006800F00C0008285DD0A069AE
:1048C000022845D100201F490866FFF797F90546E1
:1048D00006E0FFF793F9401B022801D9032035E6D3
:1048E000174808380068C0F340600028F1D1D4E9C7
:1048F00007010843616A40EA81110122A06AC2EB04
:10490000500041EA00412C20005D41EA00600C4962
:10491000091F086001200B490866FFF76FF905467B
:1049200006E0FFF76BF9401B022801D903200DE6D2
:10493000034808380068C0F340600028F1D049E01F
:104940000838024000004742800E47420070004095
:10495000002021490866FFF751F9054606E0FFF7F8
:104960004DF9401B022801D90320EFE51B480068E0
:10497000C0F340600028F2D12CE0A069012800D1EA
:10498000E4E51648001D0668A069012820D006F459
:104990008001E06981421BD106F03F01206A81421B
:1049A00016D147F6C0703040616AB0EB811F0FD15D
:1049B00006F440310122A06AC2EB5000B1EB004F77
:1049C00006D106F070612C20005DB1EB006F01D0C4
:1049D0000120BBE50020B9E5000047420038024055
:1049E00010B504460CB9012010BD606A38B9606882
:1049F000B0F5827F00D105E00021E16102E00021F5
:104A0000216161610021A16294F8510028B9002060
:104A100084F85000204600F047F8022084F8510046
:104A20002068006820F0400021680860A08800F439
:104A30008270218901F404410843A18901F40061D5
:104A40000843217C01F002010843217D01F00101AE
:104A50000843218B01F400710843217F01F03801E4
:104A600008432021095D01F080010843218D01F4F4
:104A700000510843216808600421A06901EA104040
:104A800094F8241001F01001084321684860206860
:104A9000C06920F400602168C861002060650120C1
:104AA00084F8510000209FE710B586B00446142119
:104AB00001A8FBF7C3FD4B49206888427ED100BFA7
:104AC000002000904848006840F480504649086043
:104AD0000846006800F48050009000BF00BF00BF8F
:104AE0000020009040481438006840F002003E4921
:104AF000143908600846006800F00200009000BF0A
:104B000000BF00BF002000900846006840F0010090
:104B100008600846006800F00100009000BF00BF78
:104B2000182001900220029001200390032004909D
:104B30000520059001A92D48FEF760FF8020019017
:104B4000022002900120039003200490052005908C
:104B500001A92748FEF752FF2648274908604FF071
:104B6000C0604860002124488160C1604FF48061CA
:104B70000161002141618161C1614FF40031016235
:104B800000214162FEF7B0FE08B1FDF7C0FC00BF96
:104B90001948E064846300BF16484830174908602C
:104BA0004FF0C06048604021144881600021C1601E
:104BB0004FF4806101610021416100E010E08161FA
:104BC000C1614FF40031016200214162FEF78CFEA9
:104BD00008B1FDF79CFC00BF0848A064846300BFD7
:104BE00006B010BD003001404438024000040240CD
:104BF0000000024010640240D00500203006002072
:104C00002DE9FF5F0446884691461D460E9E012011
:104C100002900020019000BF94F85000012803D1B9
:104C2000022004B0BDE8F09F012084F8500000BFCE
:104C3000FEF7E4FF074694F851B060680390AA4677
:104C4000BBF1010F0BD00398B0F5827F04D1A068AF
:104C500010B9BBF1040F02D002200190DBE0B8F1E3
:104C6000000F03D0B9F1000F00D015B90120019059
:104C7000D1E094F85100042802D0052084F85100B6
:104C800000206065C4F83890E587A587C4F83080B7
:104C9000E586A586206460642068006800F0400016
:104CA000402805D02068006840F040002168086076
:104CB000E068B0F5006F4AD1606810B1BAF1010F39
:104CC00009D1206B00882168C860206B801C20639C
:104CD000E08E401EE08633E02068806800F002002D
:104CE000022810D1E08E70B1029801280BD1206B00
:104CF00000882168C860206B801C2063E08E401E05
:104D0000E086002002902068806800F0010068B111
:104D1000E08F58B12068C068A16B0880A06B801C30
:104D2000A063E08F401EE08701200290FEF766FF3F
:104D3000C01BB04204D3701C10B1032001906AE084
:104D4000E08E0028C8D1E08F0028C5D14AE0606815
:104D500010B1BAF1010F09D1206B007821680873F6
:104D6000206B401C2063E08E401EE08634E020680B
:104D7000806800F00200022810D1E08E70B1029825
:104D800001280BD1206B007821680873206B401C30
:104D90002063E08E401EE08600200290206880683C
:104DA00000F0010068B1E08F58B12068C068A16BC5
:104DB0000870A06B401CA063E08F401EE0870120BC
:104DC0000290FEF71BFFC01BB04201D3701C00B95C
:104DD00016B9032001901EE0E08E0028C7D1E08FB5
:104DE0000028C4D13A463146204604F097F920B154
:104DF00001200190202060650DE0A06850B900BF3F
:104E0000002000902068C0680090206880680090B2
:104E100000BF00BF00BF012084F8510000BF002088
:104E200084F8500000BF0198FBE67047704710B54A
:104E30000346002200BF93F83C00012801D1022064
:104E400010BD012083F83C0000BF22F0FF00CC68B9
:104E500040EA040222F440708C6840EA040222F422
:104E600080604C6840EA040222F400600C6840EA6A
:104E7000040222F480500C6940EA040222F400503B
:104E80004C6940EA040222F48040CC6940EA040202
:104E90001868426400BF002083F83C0000BF00BFD8
:104EA000CEE7000030B502460B4600BF92F83C004A
:104EB000012801D1022030BD012082F83C0000BF52
:104EC000022082F83D00106844681068816824F070
:104ED00070041868044310684460184D1068A842B4
:104EE0001BD01068B0F1804F17D0154D1068A84244
:104EF00013D0144D1068A8420FD0134D1068A8426B
:104F00000BD0124D1068A84207D0114D1068A8426E
:104F100003D0104D1068A84205D121F080015868D7
:104F2000014310688160012082F83D0000BF00202D
:104F300082F83C0000BF00BFBDE700000000014058
:104F40000004004000080040000C00400004014044
:104F5000004001400018004010B504460CB9012083
:104F600010BD94F83D0028B9002084F83C0020468C
:104F700000F026F8022084F83D00211D206804F08E
:104F800029FA012084F8460000BF84F83E00012180
:104F90003F200155402001554120015500BF00BF71
:104FA000012084F84200432001554420015545204A
:104FB000015500BF012084F83D000020D0E700002B
:104FC00038B504461949206888420FD100BF002037
:104FD00000901748006840F0040015490860084632
:104FE000006800F00400009000BF1DE01149206837
:104FF000884219D100BF002000900D48001D0068B4
:1050000040F400300A49091D08600846006800F4B1
:105010000030009000BF00BF002205211920FEF7DC
:10502000DDFF1920FEF7CAFF38BD00000008004070
:105030004038024000440140014691F83D000128FB
:1050400001D001207047022081F83D001A4B08680A
:1050500098421BD00868B0F1804F17D0174B0868F2
:10506000984213D0164B086898420FD0154B086829
:1050700098420BD0144B0868984207D0134B08682D
:10508000984203D0124B086898420CD10868806897
:1050900000F00702062A0CD00868006840F0010002
:1050A0000B68186005E00868006840F001000B68B4
:1050B00018600020C6E70000000001400004004026
:1050C00000080040000C0040000401400040014086
:1050D00000180040014691F83D00012801D0012050
:1050E0007047022081F83D000868C06840F0010068
:1050F0000B68D8601A4B086898421BD00868B0F15A
:10510000804F17D0174B0868984213D0164B086889
:1051100098420FD0154B086898420BD0144B086882
:10512000984207D0134B0868984203D0124B086886
:1051300098420CD10868806800F00702062A0CD05B
:105140000868006840F001000B68186005E0086816
:10515000006840F001000B6818600020C0E7000004
:10516000000001400004004000080040000C004026
:105170000004014000400140001800402DE9F041CA
:1051800004460D46002700BF94F83C00012802D1D8
:105190000220BDE8F081012084F83C0000BF02201D
:1051A00084F83D002068866826F0770626F47F465E
:1051B000206886602868502833D00CDC202850D026
:1051C00004DC00284BD0102851D149E0302849D0C8
:1051D00040284CD139E060282DD0702807D0B0F598
:1051E000805F03D0B0F5005F41D10DE041E0D5E92B
:1051F00002136A68206804F06AF92068866846F03D
:1052000077062068866034E0D5E902136A68206872
:1052100004F05DF92068806840F48040216888606F
:1052200027E0EA686968206804F05FFA5021206886
:1052300004F058F91DE0EA686968206804F068FA2B
:105240006021206804F04EF913E0EA68696820687C
:1052500004F04BFA4021206804F044F909E000BF53
:1052600000BF00BF2968206804F03CF901E0012775
:1052700000BF00BF012084F83D0000BF002084F87B
:105280003C0000BF384684E7704710B504462068EC
:105290000069C0F34000D8B12068C068C0F3400086
:1052A000B0B16FF00200216808610120207720680A
:1052B000806900F0030018B12046FFF7E5FF05E024
:1052C000204600F02BF9204600F002FA002020775B
:1052D00020680069C0F38000D8B12068C068C0F3BE
:1052E0008000B0B16FF004002168086102202077CF
:1052F0002068806900F4407018B12046FFF7C4FFB1
:1053000005E0204600F00AF9204600F0E1F900200F
:10531000207720680069C0F3C000D8B12068C06859
:10532000C0F3C000B0B16FF008002168086104202C
:1053300020772068C06900F0030018B12046FFF70D
:10534000A3FF05E0204600F0E9F8204600F0C0F990
:105350000020207720680069C0F30010D8B12068D1
:10536000C068C0F30010B0B16FF010002168086190
:10537000082020772068C06900F4407018B12046EA
:10538000FFF782FF05E0204600F0C8F8204600F055
:105390009FF9002020772068006900F0010058B1D3
:1053A0002068C06800F0010030B16FF00100216892
:1053B0000861204600F014FA20680069C0F3C010AC
:1053C00058B12068C068C0F3C01030B16FF08000E1
:1053D000216808612046FFF728FD20680069C0F3B6
:1053E000801058B12068C068C0F3801030B16FF0F1
:1053F000400021680861204600F0FBF92068006940
:10540000C0F3401058B12068C068C0F3401030B1FC
:105410006FF02000216808612046FFF707FD10BDEE
:1054200010B586B00446142101A8FBF707F93449EA
:10543000206888421DD100BF0020009031480068DC
:1054400040F010002F4908600846006800F0100086
:10545000009000BF00BF481501900220029000207C
:10546000039004900120059001A92748FEF7C6FA91
:1054700044E02649206888421ED100BF00200090E9
:105480002048006840F008001E490860084600688F
:1054900000F00800009000BF00BF4FF48040019072
:1054A000022002900020039004900220059001A9A0
:1054B0001748FEF7A3FA21E01649206888421DD15B
:1054C00000BF002000900F48006840F002000D4926
:1054D00008600846006800F00200009000BF00BFAE
:1054E0008815019002200290012003900220049070
:1054F0000320059001A90848FEF780FA06B010BD08
:105500000000014030380240001002400008004016
:10551000000C0240004401400004024070472DE9A5
:10552000F04104460D461646002700BF94F83C00A3
:10553000012802D10220BDE8F081012084F83C005E
:1055400000BF36B1042E1BD0082E31D00C2E5ED1F8
:1055500045E02946206803F0CFFF2068806940F0CD
:105560000800216888612068806920F004002168B3
:10557000886120688069296908432168886148E05A
:105580002946206803F0F0FF2068806940F400603D
:10559000216888612068806920F4806021688861C2
:1055A00020688069296940EA01202168886130E02B
:1055B0002946206804F016F82068C06940F0080009
:1055C0002168C8612068C06920F004002168C861B2
:1055D0002068C069296908432168C86119E0294623
:1055E000206804F03BF82068C06940F4006021683E
:1055F000C8612068C06920F480602168C8612068A3
:10560000C069296940EA01202168C86101E00127D9
:1056100000BF00BF00BF002084F83C0000BF384638
:1056200089E710B504460CB9012010BD94F83D007F
:1056300028B9002084F83C00204600F025F802201C
:1056400084F83D00211D206803F0C4FE012084F889
:10565000460000BF84F83E0001213F200155402054
:1056600001554120015500BF00BF012084F84200D0
:1056700043200155442001554520015500BF01201C
:1056800084F83D000020D0E738B504460E49206874
:10569000884217D100BF002000900C48006840F0FD
:1056A00001000A4908600846006800F00100009007
:1056B00000BF00BF002205211920FEF78FFC192032
:1056C000FEF77CFC38BD0000000001404438024079
:1056D0007047000070B504460D4615B994F83E00B9
:1056E0000BE0042D02D13F20005D06E0082D02D121
:1056F0004020005D01E04120005D012801D0012033
:1057000070BD1DB9022084F83E000EE0042D03D1C7
:1057100002213F20015508E0082D03D1022140203D
:10572000015502E00221412001550122294620684D
:1057300003F0BCFE23492068884203D02249206838
:10574000884201D1012000E0002028B12068406C8F
:1057500040F40040216848641A49206888421BD000
:105760002068B0F1804F17D018492068884213D0C4
:105770001749206888420FD01649206888420BD00C
:1057800011492068884207D013492068884203D015
:105790001249206888420CD12068806800F0070612
:1057A000062E0CD02068006840F0010021680860D7
:1057B00005E02068006840F00100216808600020D2
:1057C0009EE700000000014000040140000400408A
:1057D00000080040000C004000400140001800405C
:1057E00010B504462068B0F1804F01D1FEF738FBB8
:1057F00010BD7047704770472DE9F84F0446206888
:1058000005682068C668206847694FF00009CA46E5
:1058100005F00F09B9F1000F0AD105F0200038B1E9
:1058200006F0200020B1204603F0F0FFBDE8F88F1D
:10583000B9F1000F7CD007F0010018B906F49070A0
:10584000002875D005F0010030B106F4807018B161
:10585000206C40F00100206405F0040030B107F036
:10586000010018B1206C40F00200206405F0020035
:1058700030B107F0010018B1206C40F00400206442
:1058800005F0080048B106F0200010B907F001004B
:1058900018B1206C40F008002064206C002846D02D
:1058A00005F0200028B106F0200010B1204603F0DA
:1058B000ADFF20684069C0F3801A206C00F008003A
:1058C00010B9BAF1000F2DD0204603F059FF20681F
:1058D000406900F04000402820D100BF00BF21688F
:1058E000143151E8001F21F040002168143141E8D3
:1058F0000002002AF3D100BFA06B50B17548A16B24
:105900000865A06BFDF7BBFE88B1A06B016D8847F1
:105910000DE02046FFF76FFF09E009E02046FFF7A2
:105920006AFF04E02046FFF766FF002020647DE761
:10593000206B012876D105F01000002872D006F007
:1059400010000028FAD000BF0020009020680068F6
:10595000009020684068009000BF00BF2068406948
:1059600000F0400040285ED1A06B006840681FFA3C
:1059700080F8B8F1000F54D0A08D404551DDA4F857
:105980002E80A06BC069B0F5807F43D000BF00BF00
:1059900021680C3151E8001F21F4807021680C311E
:1059A00041E80002002AF3D100BF00BF00BF216818
:1059B000143151E8001F21F001002168143141E841
:1059C0000002002AF3D100BF00BF00BF21681431DC
:1059D00051E8001F21F040002168143141E8000225
:1059E000002AF3D100BF202084F83E00002020636D
:1059F00000BF00BF21680C3151E8001F21F01000EA
:105A000021680C3141E80002002AF3D100BFA06BED
:105A1000FDF7DFFDA08DE28D801A81B22046FFF7F1
:105A2000E9FE03E740E0A08DE18D401A1FFA80F8FF
:105A3000E08DC0B3B8F1000F35D000BF00BF2168C2
:105A40000C3151E8001F21F4907021680C3141E8BD
:105A50000002002AF3D100BF00BF00BF216814314B
:105A600051E8001F21F001002168143141E80002D3
:105A7000002AF3D100BF202084F83E0000202063DC
:105A800000BF00BF21680C3151E8001F21F0100059
:105A900021680C3141E80002002AF3D100BF4146E1
:105AA0002046FFF7A7FEC1E605F0800030B106F002
:105AB000800018B1204604F03BF8B7E605F040003E
:105AC00030B106F0400018B1204603F08FFEADE67D
:105AD00000BFABE66D97000810B504460CB9012075
